:100000000C94B9000C94D6000C94D6000C94D60035
:100010000C94D6000C94D6000C94D6000C94A70532
:100020000C94D6000C94D6000C94D6000C94D600F8
:100030000C94D6000C94D6000C94D6000C94D600E8
:100040000C94D6000C94D6000C94D6000C94D600D8
:100050000C94D6000C94D6000C94D6000C94D600C8
:100060000C948F040C94D600036EDB363D9A99995C
:10007000993DABAAAA2A3E000000803F084AD73B20
:100080003BCE016E84BCBFFDC12F3D6C74319ABD67
:1000900056833DDA3D00C77F11BED9E4BB4C3E918B
:1000A0006BAAAABE000000803F072C7AA5BA6CC5D7
:1000B00090DA3B9365FC8BBC53F810FD3C56928361
:1000C0004DBD879D3AB63DCBC9BF5BBE73DA0FC944
:1000D0003F05A84CCDB2D44EB93836A9020C50B960
:1000E000918688083CA6AAAA2ABE000000803F0785
:1000F000634236B79BD8A71A39685618AEBAAB55C3
:100100008C1D3CB7CC5763BD6DEDFD753EF6177287
:1001100031BF000000803F08000000BE9224491259
:100120003EABAAAA2ABECDCCCC4C3E00000080BE7D
:10013000ABAAAAAA3E00000000BF000000803F005A
:1001400000000000084178D3BB4387D1133D190E4E
:100150003CC3BD4282AD2B3E68EC8276BED98FE1B6
:10016000A93E4C80EFFFBE01C4FF7F3F00000000AE
:10017000000011241FBECFEFD8E0DEBFCDBF16E0D8
:10018000A0E0B1E0EEE9FBE502C005900D92A23CD3
:10019000B107D9F727E0A2ECB6E001C01D92AC3D53
:1001A000B207E1F70E94CC050C94CD2D0C94000011
:1001B0009091DB079111FCCF91E09093DB07909336
:1001C000DA072FEF2093D9071092D807240F209336
:1001D000D7071092D6079093D6079091D607880F2D
:1001E000892B8093D6078091D5078130E9F410924E
:1001F000D5078091D6078093BB0085EC8093BC0027
:100200008091DB078130E1F38091D807841710F4E7
:100210004091D807A5EBB7E0962FFB018E2F891BE5
:10022000841720F0842F089585EEE8CF8D91819377
:10023000F5CF9091DB079111FCCF92E09093DB0713
:100240002093DA079FEF9093D9071092D807409335
:10025000D707FB0190819093B507423019F4918143
:100260009093B6071092D6071092D6079091D607B2
:10027000880F892B8093D6078091D5078130D9F4D8
:100280001092D5078091D6078093BB0085EC8093B0
:10029000BC008091DB078230E1F38091D9078F3F6A
:1002A00061F08091D907803251F08091D907803375
:1002B00041F084E0089585EEEACF80E0089582E081
:1002C000089583E008959091C00095FFFCCF80933E
:1002D000C60008952F923F924F925F926F927F9245
:1002E0008F929F92AF92BF92CF92DF92EF92FF9246
:1002F0000F931F93CF93DF93CDB7DEB72A970FB637
:10030000F894DEBF0FBECDBF182F4A015B01722EDD
:100310008230D1F5022F10E0EE24E394F12C01504D
:100320001109C8F42A960FB6F894DEBF0FBECDBFF0
:10033000DF91CF911F910F91FF90EF90DF90CF90C1
:10034000BF90AF909F908F907F906F905F904F90F5
:100350003F902F900895A701002E02C0440F551F13
:100360000A94E2F7052E000C660B770B4821592101
:100370006A217B2181E0452B462B472B09F480E045
:10038000805D0E946301CBCF81149104A104B1046C
:1003900009F445C0FE0131967F016F0100E0282E6F
:1003A000312C512C412C7016D9F081149104A104E8
:1003B000B10499F0682CC501B401A20191010E9419
:1003C000562849015A01129F60181124F6016082D3
:1003D0000F5FFFEFCF1ADF0AE6CFFAE0F71580F4E0
:1003E0000E0D1F2D111D0E151F0509F49BCFF801D1
:1003F00082918F018A3038F0895C0E946301F3CFCB
:10040000F6011082E5CF805DF8CF80E30E946301A2
:100410001F5F171509F486CF1A30B9F783CF10E0A4
:10042000F8CF85ED8093BC008091BC0084FDFCCFAB
:100430001092DB070895EF92FF920F931F93CF93D3
:10044000DF931F92CDB7DEB7182F6983042F790190
:1004500020E041E0BE016F5F7F4F0E941901402FF5
:10046000B701812F0E94D8000F90DF91CF911F918B
:100470000F91FF90EF900895CF93DF931F92CDB728
:10048000DEB79E012F5F3F4F41E00E941B02898132
:100490000F90DF91CF910895CF93DF9300D0CDB728
:1004A000DEB769834A8321E042E0BE016F5F7F4F80
:1004B0000E9419010F900F90DF91CF9108950F9333
:1004C0001F93CF93DF9300D000D000D01F92CDB701
:1004D000DEB78C0162E08CE00E943C0280FFFACF24
:1004E0009E012F5F3F4F47E063E08CE00E941B02BC
:1004F0008F8183FD0DC089819A81F801918380836A
:100500008B819C81938382838D819E81958384835B
:1005100027960FB6F894DEBF0FBECDBFDF91CF9107
:100520001F910F9108958FEF9BEEAFEBBFE3809388
:100530006E0790936F07A0937007B09371070895AB
:10054000FC016093BB0084E88093BC008091BC00F8
:1005500087FFFCCF9091B900987F918381E098321A
:1005600009F480E00895FC0184EA8093BC00809146
:10057000BC0087FFFCCF9091B900987F91839830A1
:1005800021F0903111F081E0089580818093BB00CB
:1005900084E88093BC008091BC0087FFFCCF9091E1
:1005A000B900987F9183983111F0903461F780E021
:1005B00008951F93CF93DF93EC01162F0E94B3028F
:1005C00060E0CE010E94A002612FCE010E94A00235
:1005D00084E98093BC008091BC0084FDFCCFDF9156
:1005E000CF911F9108952F923F924F925F926F92F9
:1005F0007F928F929F92AF92BF92CF92DF92EF92B3
:10060000FF920F931F93CF93DF93CDB7DEB7FE0119
:100610007596A190B1908F014AE0E42EF50180819A
:10062000811113C0DF91CF911F910F91FF90EF9037
:10063000DF90CF90BF90AF909F908F907F906F9002
:100640005F904F903F902F900895853209F019C127
:1006500065018FEFC81AD80AF501218180ED820F5C
:100660008A3008F012C1F12C09C0FE9C200D112423
:1006700030EDF32EF20EF60121816A01A6014F5FE3
:100680005F4F80ED820F8A3080F3283509F4E0C097
:100690000CF05CC0243409F4B3C06CF4223409F4C7
:1006A000E1C023340CF082C0253209F088C085E215
:1006B0000E94630184C0233509F46BC0253509F419
:1006C00000C1263409F07BC0180184E0280E311CDB
:1006D000F801408051806280738020E030E0A90101
:1006E000C301B2010E94AB2987FF07C08DE20E94BF
:1006F000630177FA709477F87094C301B2010E9495
:100700002E2A4B015C012FEFBC01A4018AE00E945C
:100710006A018EE20E946301C501B4010E945D2A54
:100720009B01AC01C301B2010E94B12820E034E278
:1007300044E759E40E94B12B0E942E2AAB01BC0170
:100740002FEF8AE00E946A01810139C0263609F440
:10075000BBCFBCF4233651F12436C1F1223679F5F2
:100760005801F2E0AF0EB11CF80140815181FFEF5A
:10077000FF1202C090E1F92E70E060E02F2D82E0C0
:100780003AC0253709F458C0283709F4BCC02337CC
:10079000B1F4F801A080B1800E5F1F4FF501819187
:1007A0005F01882361F00E946301F8CF5801F2E0F5
:1007B000AF0EB11CF80180810E94630185015601D2
:1007C000FFEFAF1ABF0A2ACFFF24FA945801F2E0D4
:1007D000AF0EB11CF8010081118117FF06C0119501
:1007E000019511098DE20E946301A801110F660BAA
:1007F000770B2F2D8AE00E946A01E0CFFF24FA9444
:100800005801F4E0AF0EB11CF801408051806280C5
:10081000738077FE0BC07094609450944094411C98
:10082000511C611C711C8DE20E9463012F2DB301CC
:10083000A201E0CFFF24FA945801F2E0AF0EB11C00
:10084000F8014081518170E060E0D3CFFF24FA9439
:100850005801F4E0AF0EB11CF80140815181628172
:1008600073815AC0580184E0A80EB11CF801408180
:10087000518162817381FFEFFF1280CF80E2F82EF9
:100880007DCF0E94630165019ACF2835F9F21CF5EE
:10089000243409F4B3CF6CF4223409F002CF5801A8
:1008A000F4E0AF0EB11CF801408151816281738187
:1008B000E5CF233509F46DCFFF24FA94253509F0EF
:1008C00000CF5801F4E0AF0EB11CF8014081518116
:1008D000628173818ECF263609F4F6CE64F4233616
:1008E00009F464CF243609F46FCF223609F067CFBC
:1008F000FF24FA9435CF253709F49CCFFF24FA94CE
:10090000283709F044CF5801F2E0AF0EB11CF801CE
:100910004081518170E060E02F2D80E16CCF1F920B
:100920000F920FB60F9211242F933F934F935F9323
:100930006F937F938F939F93AF93BF93EF93FF93A7
:100940008091B900887F803609F44AC0F0F588327A
:1009500009F4A5C018F5803109F499C0B8F48823CA
:1009600009F4F2C0883009F492C0FF91EF91BF9171
:10097000AF919F918F917F916F915F914F913F9137
:100980002F910F900FBE0F901F901895883109F48A
:1009900086C0803251F78093D90714C0803409F49F
:1009A0009BC040F48033B9F38833F9F68093D907BC
:1009B00085ECAEC0803509F483C0883509F494C055
:1009C000883499F60E941102D0CF883909F48AC080
:1009D00038F5883729F050F4883611F0803729F639
:1009E00083E08093DB071092B40755C0883809F480
:1009F00079C0803919F0803809F0B7CF8091B407F9
:100A0000803208F06FC0E091B40781E08E0F8093D0
:100A1000B4078091BB00F0E0EC56F84F80833BC0F8
:100A2000803B39F0D0F4803A09F477C0883A09F075
:100A30009CCF84E08093DB0710929307109292077B
:100A4000F0E0E0E009958091920781110FC081E00C
:100A5000809392071092720709C0803C09F4A8CFD6
:100A6000883C09F4A5CF883B09F07FCFE09193073C
:100A700081E08E0F80939307F0E0EE58F84F80816D
:100A80008093BB00909193078091920729C0809139
:100A9000D6078093BB0085EC8093BC0066CF909115
:100AA000D8078091D707981758F5E091D80781E0CB
:100AB0008E0F8093D807F0E0EB54F84F8081E9CF98
:100AC000E091D80781E08E0F8093D8078091BB001A
:100AD000F0E0EB54F84F80839091D8078091D707CE
:100AE0009817C8F285E8D8CFE091D80781E08E0F3B
:100AF0008093D8078091BB00F0E0EB54F84F8083DF
:100B00008091DA0781115ECF81E08093D50784EA76
:100B10008093BC001092DB0728CF8091B40780320D
:100B200030F4E091B407F0E0EC56F84F10820E94E8
:100B300011026091B40770E084E997E0F0E0E0E032
:100B400009951092B40734CF1092D9073BCF1F926A
:100B50000F920FB60F9211248F939F93AF93BF9371
:100B600080916A0790916B07A0916C07B0916D0717
:100B70000196A11DB11D80936A0790936B07A09306
:100B80006C07B0936D07BF91AF919F918F910F90BC
:100B90000FBE0F901F901895CF93DF93CDB7DEB7A0
:100BA000CE58D5400FB6F894DEBF0FBECDBF8091B2
:100BB00070008D7F80937000789482E08093B00005
:100BC00094E09093B100809370008AEF8093B3001B
:100BD00088E18093C1001092C20016E0F12EF092DD
:100BE000C2001092C00088E08093C4001092C5003B
:100BF0001092DB0781E08093DA071092D50780918D
:100C0000B9008E7F8093B9008091B9008D7F809369
:100C1000B90088E48093B80085E48093BC001F92FB
:100C200084EF8F9384E28F931F928CEA91E09F93DD
:100C30008F930E94F302249A2C98259A2D9A8BEB7D
:100C400091E09F938F930E94F30285EC91E09F9334
:100C50008F930E94F30284ED91E09F938F930E9403
:100C6000F30284EE91E09F938F930E94F3020FEFC3
:100C70001FE027E2015010402040E1F700C00000D3
:100C800065E788E60E943C02182F1F928F9380EF41
:100C900091E09F938F930E94F3023FEF4FE057E262
:100CA000315040405040E1F700C000000FB6F894CA
:100CB000DEBF0FBECDBF113711F00C94831385E159
:100CC00092E09F938F930E94F3028E01055F1A4F6B
:100CD000D8011D92FA94E9F740E069E188E60E94A4
:100CE0004C0242E06AE188E60E944C0241E06BE17E
:100CF00088E60E944C0242E06DE188E60E944C02C8
:100D000041E06CE188E60E944C020F900F90B8EC35
:100D1000EB2EF12C980146E06BE388E60E941B0263
:100D2000F80180819181982789279827C750DB4F48
:100D300028813981C95FD440820F931FC750DB4F90
:100D400099838883C95FD4408281938198278927BA
:100D50009827C550DB4F28813981CB5FD440820F63
:100D6000931FC550DB4F99838883CB5FD440848128
:100D70009581982789279827C350DB4F288139818F
:100D8000CD5FD440820F931FC350DB4F998388837C
:100D9000CD5FD440980146E063E488E60E941B02E0
:100DA000D8018D919C911197982789279827C15038
:100DB000DB4F28813981CF5FD440820F931FC15010
:100DC000DB4F99838883CF5FD44012968D919C919D
:100DD0001397982789279827CF5FDA4F2881398181
:100DE000C150D540820F931FCF5FDA4F998388831C
:100DF000C150D54014968D919C91982789279827AA
:100E0000CD5FDA4F28813981C350D540820F931FBF
:100E1000CD5FDA4F99838883C350D540B1E0EB1A98
:100E2000F10809F077CFFE01E750FB4F7F019E01EB
:100E300021503B4F69013F0136E0630E711C960162
:100E4000A8ECAA2EB12C819191914F0142E0841A15
:100E50009108B5010E944228D4016D937C93D90179
:100E60008D919D919D014D01B2E08B1A9108B501C4
:100E70000E944228D4016D937C936E167F0619F769
:100E800040EE6CE188E60E944C0240EE6BE188E6A1
:100E90000E944C02BFE7E8E3F1E0B150E040F040CF
:100EA000E1F700C00000E8ECAE2EB12C980146E05E
:100EB0006BE388E60E941B02D8018D919C911197EB
:100EC000982789279827CD50DB4F28813981C35F28
:100ED000D440820F931FCD50DB4F99838883C35F2B
:100EE000D44012968D919C91139798278927982723
:100EF000CB50DB4F28813981C55FD440820F931FCF
:100F0000CB50DB4F99838883C55FD44014968D9175
:100F10009C91982789279827C950DB4F28813981D0
:100F2000C75FD440820F931FC950DB4F99838883DA
:100F3000C75FD440980146E063E488E60E941B0244
:100F4000F80180819181982789279827CD56DB4F1A
:100F500028813981C359D440820F931FCD56DB4F6E
:100F600099838883C359D4408281938198278927A4
:100F70009827CB56DB4F28813981C559D440820F41
:100F8000931FCB56DB4F99838883C559D440848106
:100F90009581982789279827C956DB4F2881398161
:100FA000C759D440820F931FC956DB4F998388835A
:100FB000C759D440F1E0AF1AB10809F077CF8E01DC
:100FC0000D501B4F9E012D563B4FCD5EDA4F39839E
:100FD0002883C351D540380136E0630E711CFE01F1
:100FE000ED56FB4F580128EC30E0D5018D919D91D5
:100FF0005D014D01B2E08B1A9108B9010E944228AF
:10100000D4016D937C93819191914F01B2E08B1A41
:101010009108B9010E944228D4016D937C936A140F
:101020007B0419F740E06CE188E60E944C0240E046
:101030006BE188E60E944C02BFE7E8E3F1E0B150C3
:10104000E040F040E1F700C000009E012B5F3A4F06
:1010500041E06DE088E60E941B0225E035E02C0FA0
:101060003D1F2F5F3F4F41E06EE088E60E941B026C
:101070006FE088E60E943C02C95FDA4F8883C75060
:10108000D54060E088E60E943C02C85FDA4F888362
:10109000C850D54061E088E60E943C02C75FDA4F45
:1010A0008883C950D54062E088E60E943C02982EB1
:1010B000CB5FDA4F6881C550D54070E090E080E0AA
:1010C0000E945D2A20E030E040E85FE30E94B12802
:1010D0009B01AC016EEA77E481E89FE30E941E2C3D
:1010E00020E030EC43E255E40E94B12B69837A831F
:1010F0008B839C83CA5FDA4F6881C650D54070E00D
:1011000090E080E00E945D2A20E030E040E85FE36C
:101110000E94B1289B01AC016EEA77E481E89FE36D
:101120000E941E2C20E030EC43E255E40E94B12BDB
:101130006D837E838F839887C95FDA4F6881C7503C
:10114000D54070E090E080E00E945D2A20E030E031
:1011500040E85FE30E94B1289B01AC016EEA77E4AE
:1011600081E89FE30E941E2C20E030EC43E255E42E
:101170000E94B12B69877A878B879C87C85FDA4F7B
:101180006881C850D54070E090E080E00E945D2A00
:1011900020E030E040E85FE30E94B1289B01AC0111
:1011A0006EEA77E481E89FE30E941E2C20E030EC99
:1011B00043E255E40E94B12B6D877E878F87988B21
:1011C000C75FDA4F6881C950D54070E090E080E099
:1011D0000E945D2A20E030E040E85FE30E94B128F1
:1011E0009B01AC016EEA77E481E89FE30E941E2C2C
:1011F00020E030EC43E255E40E94B12B698B7A8BFE
:101200008B8B9C8B692D70E090E080E00E945D2AC2
:1012100020E030E040E85FE30E94B1289B01AC0190
:101220006EEA77E481E89FE30E941E2C20E030EC18
:1012300043E255E40E94B12B6D8B7E8B8F8B988F90
:101240009E012F5F3F4F490176EE272E76E0372E25
:10125000D8016D917D918D01F701819191917F016F
:10126000D4014D905D906D907D904D01681B790B80
:10127000072E000C880B990B0E945F2A20E030E0BB
:1012800048EC52E40E94B12BA30192010E94B529BF
:10129000F10161937193819391931F01CD5EDA4FB8
:1012A000A881B981C351D5406D917D91CD5EDA4F52
:1012B000B983A883C351D540F601819191916F0103
:1012C000681B790B072E000C880B990B0E945F2A74
:1012D00020E030E048EC52E40E94B12BD401189693
:1012E0002D913D914D915C911B970E94B529F10183
:1012F0006087718782879387A016B10609F0A8CF0F
:101300008091E9068F938091E8068F938091E7069C
:101310008F938091E6068F938CE292E09F938F9358
:101320000E94F3028091ED068F938091EC068F93DB
:101330008091EB068F938091EA068F9380E792E08D
:101340009F938F930E94F3028091F1068F93809177
:10135000F0068F938091EF068F938091EE068F9326
:1013600084EB92E09F938F930E94F3028091F506A5
:101370008F938091F4068F938091F3068F938091E1
:10138000F2068F9388EF92E09F938F930E94F3026F
:101390008091F9068F938091F8068F938091F706DC
:1013A0008F938091F6068F9388E393E09F938F93BA
:1013B0000E94F3028091FD068F938091FC068F932B
:1013C0008091FB068F938091FA068F9388E793E0D4
:1013D0009F938F930E94F3020FB6F894DEBF0FBE67
:1013E000CDBF40E86BE688E60E944C021FEF21EE7D
:1013F00034E0115020403040E1F700C0000041E0EF
:101400006BE688E60E944C0240E06CE688E60E94AB
:101410004C024FEF53EC89E0415050408040E1F7DF
:1014200000C0000040E068E388E60E944C0240E013
:1014300063E288E60E944C0240E06BE688E60E9488
:101440004C0240E064E288E60E944C0240E06AE61A
:1014500088E60E944C024CE06AE688E60E944C0254
:10146000AFE5BAEE1197F1F700C0000041E06AE184
:1014700088E60E944C0240E069E188E60E944C0246
:1014800040E06BE188E60E944C0240E06CE188E6B7
:101490000E944C0240E46AE688E60E944C0248E75B
:1014A00063E288E60E944C02BFEFE3EFF1E0B15047
:1014B000E040F040E1F700C0000040E063E288E671
:1014C0000E944C029E012D563B4F42E062E788E6A7
:1014D0000E941B02CD56DB4F88819981C359D440AD
:1014E0009827892798276CE070E00E942E282B010E
:1014F000C12CD12C7601812C912C5401CD5EDA4F78
:10150000188219821A821B82C351D540C95DDA4FF5
:10151000188219821A821B82C752D540C55EDA4FE3
:10152000188219821A821B82CB51D540C95EDA4FCC
:10153000188219821A821B82C751D54010E000E040
:101540004016510609F0EAC7712C612CCD5EDA4FC6
:10155000688179818A819B81C351D540A301920121
:101560000E947828C15EDA4F288339834A835B83DF
:10157000CF51D540C501B401A30192010E94782842
:10158000CD5DDA4F288339834A835B83C352D540CC
:10159000C701B601A30192010E94782869017A016E
:1015A000C95EDA4F688179818A819B81C751D540B4
:1015B000A30192010E947828C95EDA4F28833983FB
:1015C0004A835B83C751D540C55EDA4F6881798114
:1015D0008A819B81CB51D540A30192010E9478283A
:1015E00049015A01C95DDA4F688179818A819B81FD
:1015F000C752D540A30192010E94782829013A01DF
:101600001C141D041E041F0414F00C944013D70175
:10161000C6019054A109B109CD5EDA4F8883998340
:10162000AA83BB83C351D54054E0C52ED12CE12CF5
:10163000F12CC95EDA4F688179818A819B81C7511B
:10164000D540A70196010E94782850954095309585
:1016500021953F4F4F4F5F4FBB2757FDBA95A52FA1
:10166000942F832FC55EDA4F88839983AA83BB8327
:10167000CB51D540CD56DB4F8883C359D440CC568F
:10168000DB4F2883C459D440C501B401A70196019A
:101690000E94782850954095309521953F4F4F4FA7
:1016A0005F4FCB56DB4F3883C559D440CA56DB4F0A
:1016B0002883C659D440C301B201A70196010E94F4
:1016C000782850954095309521953F4F4F4F5F4F6B
:1016D000C956DB4F3883C759D440C856DB4F2883DF
:1016E000C859D440C55EDA4F4881CB51D54063E13B
:1016F00088E60E944C02CC56DB4F4881C459D44046
:1017000064E188E60E944C02CB56DB4F4881C55904
:10171000D44065E188E60E944C02CA56DB4F4881FE
:10172000C659D44066E188E60E944C02C956DB4F98
:101730004881C759D44067E188E60E944C02C856E8
:10174000DB4F4881C859D44068E188E60E944C02CA
:10175000C95EDA4F688179818A819B81C751D54002
:101760000E945F2A20E030E043E053E40E94B52964
:101770006093DA067093DB068093DC069093DD06B7
:10178000C501B4010E945F2A20E030E043E053E449
:101790000E94B5296093DE067093DF068093E00611
:1017A0009093E106C301B2010E945F2A20E030E07D
:1017B00043E053E40E94B5296093E2067093E30688
:1017C0008093E4069093E5069E012D563B4F42E040
:1017D00067E788E60E941B02CD56DB4F8880998020
:1017E000C359D440982489249824092C000CAA08B1
:1017F000BB0889829A82AB82BC829E012D563B4FE8
:1018000042E06AE788E60E941B02CD56DB4FC880A3
:10181000D980C359D440DC24CD24DC240D2C000C09
:10182000EE08FF08CD82DE82EF82F8869E012D56FB
:101830003B4F42E06DE788E60E941B02CD56DB4F2E
:1018400088819981C359D4409827892798278C018A
:10185000990F220B330BC95EDA4F088319832A8351
:101860003B83C751D54009871A872B873C87CD50CA
:10187000DB4F1882C35FD440CC50DB4F1882C45F6B
:10188000D440CB50DB4F1882C55FD440DE011196A7
:10189000FE01ED50FB4FCE010D9621E04D915D9183
:1018A0006D917D9140FD208331968A179B07B1F79A
:1018B00028E0422E512C612C712CC15EDA4F6881D8
:1018C00079818A819B81CF51D540A30192010E94E9
:1018D0007828821A930AA40AB50ACD5DDA4F688186
:1018E00079818A819B81C352D540A30192010E94D4
:1018F0007828C21AD30AE40AF50ACD5EDA4F688165
:1019000079818A819B81C351D540A30192010E94B4
:101910007828C95EDA4F88819981AA81BB81C75135
:10192000D540821B930BA40BB50B7727B7FC7A9598
:101930006B2D5A2D492DCD56DB4F4883C359D440CA
:10194000CD50DB4F2881C35FD440822ACC56DB4F79
:101950008882C459D440CB56DB4FD882C559D44075
:10196000CC50DB4F2881C45FD440C22ACA56DB4F1B
:10197000C882C659D440C956DB4F9883C759D44052
:10198000CB50DB4F2881C55FD440822BC856DB4F3C
:101990008883C859D44067E788E60E944C02CC5639
:1019A000DB4F4881C459D44068E788E60E944C0266
:1019B000CB56DB4F4881C559D4406AE788E60E9480
:1019C0004C02CA56DB4F4881C659D4406BE788E6C3
:1019D0000E944C02C956DB4F4881C759D4406DE77D
:1019E00088E60E944C02C856DB4F4881C859D44053
:1019F0006EE788E60E944C02C15EDA4F6881798109
:101A00008A819B81CF51D5400E945F2A20E030E03F
:101A100040E858E30E94B12B6093CE067093CF0646
:101A20008093D0069093D106CD5DDA4F688179819D
:101A30008A819B81C352D5400E945F2A20E030E01A
:101A400040E858E30E94B12B6093D2067093D3060E
:101A50008093D4069093D506CD5EDA4F6881798164
:101A60008A819B81C351D5400E945F2A20E030E0EB
:101A700040E858E30E94B12B6093D6067093D706D6
:101A80008093D8069093D90688EB93E09F938F9329
:101A90000E94F30287EC93E09F938F930E94F302DE
:101AA00020E030E04AE754E46091D6067091D70612
:101AB0008091D8069091D9060E94B12B0E94272AC6
:101AC0007F936F9320E030E04AE754E46091D206C0
:101AD0007091D3068091D4069091D5060E94B12BC7
:101AE0000E94272A7F936F9320E030E04AE754E476
:101AF0006091CE067091CF068091D0069091D1066C
:101B00000E94B12B0E94272A7F936F9384ED93E06C
:101B10009F938F930E94F3028091E5068F938091AB
:101B2000E4068F938091E3068F938091E2068F9372
:101B30008091E1068F938091E0068F938091DF067C
:101B40008F938091DE068F938091DD068F93809135
:101B5000DC068F938091DB068F938091DA068F935A
:101B600082EE93E09F938F930E94F3021FEF23ED89
:101B700030E3115020403040E1F700C0000040E069
:101B80006BE688E60E944C024FEF51EE84E0415034
:101B900050408040E1F700C0000041E06BE688E67D
:101BA0000E944C029FEFA3ECB9E09150A040B040DE
:101BB000E1F700C0000043E06AE188E60E944C02C1
:101BC00044E069E188E60E944C026BE188E60E94ED
:101BD0003C02182F482F4D7F6BE188E60E944C0293
:101BE000412F477E6BE188E60E944C02412F6BE15A
:101BF00088E60E944C026CE188E60E943C02182FA5
:101C0000482F477E6CE188E60E944C02412F6CE130
:101C100088E60E944C026DE188E60E943C02182F83
:101C2000482F407F6DE188E60E944C02412F4360BF
:101C30006DE188E60E944C0242E267E388E60E947A
:101C40004C0241E068E388E60E944C02EFEFF1EEBF
:101C500004E0E150F0400040E1F700C0000082EFF6
:101C600093E09F938F930E94F3020FB6F894DEBF28
:101C70000FBECDBF48E4E42E45E0F42E42E267E318
:101C800088E60E944C0241E068E388E60E944C022C
:101C900067E388E60E943C02D82E64E288E60E9450
:101CA0003C02182F68E388E60E943C02082F65E793
:101CB00088E60E943C021F928F931F920F931F92FF
:101CC0001F931F92DF92FF92EF920E94F3020FB6D2
:101CD000F894DEBF0FBECDBF32E2D312FDC41111A6
:101CE000FBC4013009F0F8C43FEF4FE057E2315038
:101CF00040405040E1F700C0000081E294E09F9333
:101D00008F930E94F302C750DB4F1882C95FD44003
:101D100087E394E09F938F930E94F3021F921CE04D
:101D20001F938EE494E09F938F930E94F302C75019
:101D3000DB4F8881C95FD4401F928F938EE594E07A
:101D40009F938F930E94F30220E041E0BE01675011
:101D50007B4F8CE00E9419010FB6F894DEBF0FBED6
:101D6000CDBF81119CC41F921F93C750DB4F888148
:101D7000C95FD4401F928F9389E794E09F938F931C
:101D80000E94F3020F900F900F900F900F900F9002
:101D900041E0BE016F5F7F4F8CE00E94D800813030
:101DA00089F01F9291E09F931F928F938DED94E0A5
:101DB0009F938F930E94F3020F900F900F900F90BC
:101DC0000F900F9080E195E09F938F930E94F30214
:101DD00019811F921F9385E295E09F938F930E9434
:101DE000F3020F900F900F900F900F900F901834F8
:101DF00009F07CC44FEF53ED80E3415050408040E8
:101E0000E1F700C0000040E06AE08CE00E944C0274
:101E1000AFE3BCE91197F1F700C000004FE06AE0C2
:101E20008CE00E944C02EFE3FCE93197F1F700C02F
:101E300000009E012F5F3F4F43E060E18CE00E9475
:101E40001B0269816058770B072E000C880B990BD9
:101E50000E945F2A20E030E040E85BE30E94B12B63
:101E600020E030E040E85FE30E94B2286093310751
:101E70007093320780933307909334076A816058D8
:101E8000770B072E000C880B990B0E945F2A20E02D
:101E900030E040E85BE30E94B12B20E030E040E816
:101EA0005FE30E94B22860933507709336078093F2
:101EB0003707909338076B816058770B072E000C1B
:101EC000880B990B0E945F2A20E030E040E85BE33A
:101ED0000E94B12B20E030E040E85FE30E94B2288E
:101EE0006093390770933A0780933B0790933C07C0
:101EF00040E06AE08CE00E944C028FE39CE901978D
:101F0000F1F700C0000042E16AE08CE00E944C0260
:101F1000AFE3BCE91197F1F700C000008AE995E052
:101F20009F938F930E94F3020E94930286E0E0E168
:101F3000F1E0DE01AD50BB4F01900D928A95E1F7C3
:101F400086E0E6E1F1E0DE01AD56BB4F01900D9277
:101F50008A95E1F71A8219821C821B821E821D82D9
:101F600088EC95E09F938F930E94F3020F900F905F
:101F70000F900F9000E810E07E01B7E0EB0EF11C2F
:101F8000CE0101960E945F02BE016F5F7F4F9E01EE
:101F90002D503B4FDE01AD56BB4FFB01819191911E
:101FA000BF01F901419151919F014817590734F43C
:101FB000AF0142505109FA01918380834D915D91A7
:101FC0008417950734F4AD0142505109FA01918309
:101FD0008083E616F70609F7FFE727E936E0F150B8
:101FE00020403040E1F700C000000150110941F6E7
:101FF000CD50DB4F88809980C35FD440CD56DB4FF6
:1020000068807980C359D440CB50DB4FC880D980D9
:10201000C55FD440CB56DB4FA880B980C559D440AA
:10202000C950DB4FE880F980C75FD440C956DB4F09
:1020300008811981C759D44020906E0730906F07EE
:102040004090700750907107B401660D771D77FFBF
:1020500002C06F5F7F4F75956795072E000C880B48
:10206000990B0E945F2AA20191010E94B12B20913D
:1020700031073091320740913307509134070E9465
:10208000B12B6093250770932607809327079093C1
:102090002807B6016A0D7B1D77FF02C06F5F7F4F77
:1020A00075956795072E000C880B990B0E945F2A87
:1020B000A20191010E94B12B209135073091360782
:1020C00040913707509138070E94B12B6093290740
:1020D00070932A0780932B0790932C07B701600F0A
:1020E000711F77FF02C06F5F7F4F75956795072E51
:1020F000000C880B990B0E945F2AA20191010E949B
:10210000B12B2091390730913A0740913B0750910C
:102110003C070E94B12B60932D0770932E0780938C
:102120002F07909330078618970897FE03C04FEF4C
:10213000841A940A95948794CA18DB08D7FE03C0C2
:102140005FEFC51AD50AD594C794E01AF10AF7FED5
:1021500003C08FEFE81AF80AC70195958795092CF7
:10216000000CAA08BB080D2C000CEE08FF08B501F6
:10217000A4014C0D5D1D6E1D7F1D8C01990F220B5E
:10218000330BCD5EDA4F088319832A833B83C35117
:10219000D540040F151F261F371FC901B8010E9423
:1021A0005F2A20E030E040E450E40E94B5292B0192
:1021B0003C01C501B4010E945F2A9B01AC01C3012F
:1021C000B2010E94B5296093C2067093C306809342
:1021D000C4069093C506C701B6010E945F2A9B0101
:1021E000AC01C301B2010E94B5296093C606709389
:1021F000C7068093C8069093C906CD5EDA4F688102
:1022000079818A819B81C351D5400E945F2A9B01BD
:10221000AC01C301B2010E94B5296093CA06709354
:10222000CB068093CC069093CD0683E096E09F93F7
:102230008F930E94F302809134078F93809133072C
:102240008F93809132078F93809131078F9389E12B
:1022500096E09F938F930E94F302809138078F93AB
:10226000809137078F93809136078F938091350740
:102270008F9382E296E09F938F930E94F302809166
:102280003C078F9380913B078F9380913A078F9300
:10229000809139078F938BE296E09F938F930E94F2
:1022A000F3021FEF23ED30E3115020403040E1F7FF
:1022B00000C000000FB6F894DEBF0FBECDBF65E7CB
:1022C00088E60E943C021F928F9380EF91E09F93DB
:1022D0008F930E94F3020F900F900F900F908DE755
:1022E00096E09F938F930E94F3028AE896E09F9373
:1022F0008F930E94F3028E010F5F1B4F88E7D80176
:102300008C931092B90088E48093B8006EEAC801FB
:102310000E94D90265EDC8010E94D90260E8C80197
:102320000E94D90268EAC8010E94D9026FE3C8017D
:102330000E94D90263EDC8010E94D90260E0C80181
:102340000E94D90260E4C8010E94D9026DE8C80168
:102350000E94D90264E1C8010E94D90260E2C8016A
:102360000E94D90260E0C8010E94D90261EAC80156
:102370000E94D90268ECC8010E94D9026AEDC80126
:102380000E94D90262E1C8010E94D90261E8C80135
:102390000E94D9026FECC8010E94D90269EDC80100
:1023A0000E94D90261EFC8010E94D9026BEDC801F9
:1023B0000E94D90260E4C8010E94D90264EAC801FF
:1023C0000E94D90266EAC8010E94D9026FEAC801D8
:1023D0000E94D90280E6ECE1F1E0DE01AD5FBB4F87
:1023E00001900D928A95E1F780E3ECE7F1E0DE01E0
:1023F000AD59BB4F01900D928A95E1F70F900F9068
:102400000F900F90FE013196C55ADA4FF983E88399
:10241000CB55D540C55ADA4FA881B981CB55D540A7
:102420001D92C55ADA4FB983A883CB55D5400A17F8
:102430001B0781F701E010E00C0F1D1F0E591B4F09
:10244000C757DA4F19830883C958D5408E010D50FC
:102450001B4FCF5EDA4F19830883C151D54001E08D
:1024600010E00C0F1D1F0A591B4FC557DA4F198377
:102470000883CB58D54001E010E00C0F1D1F0E560D
:102480001B4FC357DA4F19830883CD58D54080912D
:102490006907813011F40C94602508F439C1823049
:1024A00011F40C94A82580E6ECE1F1E0DE01AD56D4
:1024B000BB4F01900D928A95E1F7FE01ED56FB4F5F
:1024C000DE01AD5FBB4F40815181628173814D93CD
:1024D0005D936D937C9313974481558166817781D9
:1024E00014964D935D936D937C931797408551851A
:1024F0006285738518964D935D936D937C931B97BE
:102500003C961C96CF5EDA4F08811981C151D540A7
:102510000E171F07C1F610926907B9CF9E012D56FD
:102520003B4F4CE064E788E60E941B02CD56DB4F30
:1025300088819981C359D440982789279827092EE3
:10254000000CAA0BBB0BCD5EDA4F288139814A8182
:102550005B81C351D540280F391F4A1F5B1FCD5ED9
:10256000DA4F288339834A835B83C351D540CB56E6
:10257000DB4F88819981C559D440982789279827AE
:10258000092E000CAA0BBB0B880E991EAA1EBB1E9F
:10259000C956DB4F88819981C759D440982789272C
:1025A0009827092E000CAA0BBB0BC80ED91EEA1ED9
:1025B000FB1EC756DB4F88819981C959D4409827A3
:1025C00089279827092E000CAA0BBB0BC95EDA4F8E
:1025D000288139814A815B81C751D540280F391F35
:1025E0004A1F5B1FC95EDA4F288339834A835B83A6
:1025F000C751D540C556DB4F88819981CB59D4400E
:10260000982789279827092E000CAA0BBB0BC55EBB
:10261000DA4F288139814A815B81CB51D540280F1F
:10262000391F4A1F5B1FC55EDA4F288339834A83EF
:102630005B83CB51D540C356DB4F88819981CD59FF
:10264000D440982789279827092E000CAA0BBB0B8A
:10265000C95DDA4F288139814A815B81C752D540F3
:10266000280F391F4A1F5B1FC95DDA4F2883398342
:102670004A835B83C752D5400F5F1F4F0C94A00A5B
:1026800097018601105C2F4F3F4FCD5EDA4F0883D4
:1026900019832A833B83C351D5400C94140B823099
:1026A00049F48FE994E09F938F930E94F3020F9077
:1026B0000F906ECB833019F48CE994E0F4CF1F9225
:1026C0008F9383EC94E09F938F930E94F3020F907B
:1026D0000F900F900F905CCBBFEFEFE0F7E2B1509F
:1026E000E040F040E1F700C00000C8CA1F921F930D
:1026F00084E396E09F938F930E94F3020F900F90D4
:102700000F900F90DCCD1F921F9388E596E0DFCDF0
:102710006AE388E60E943C0280FF6EC19E012D564E
:102720003B4F46E06BE388E60E941B02CD56DB4F31
:1027300068817981C359D4407627672776277093BB
:10274000640760936307CB56DB4FE880F980C55977
:10275000D440FE24EF24FE24F0926607E092650741
:10276000C956DB4F08811981C759D440102701276A
:102770001027109368070093670720E030E040E8D7
:1027800058E320935F0730936007409361075093AD
:102790006207072E000C880B990B0E945F2A20E02D
:1027A00030E040E858E30E94B12B60935B077093E0
:1027B0005C0780935D0790935E07B701FF0C880B61
:1027C000990B0E945F2A20E030E040E858E30E9425
:1027D000B12B6093570770935807809359079093D4
:1027E0005A07B801110F880B990B0E945F2A20E04D
:1027F00030E040E858E30E94B12B60935307709398
:10280000540780935507909356079E012D563B4FD2
:1028100046E063E488E60E941B02CD56DB4F6881E8
:102820007981C359D44076276727762770934E075E
:1028300060934D07CB56DB4FE880F980C559D440F3
:10284000FE24EF24FE24F0925007E0924F07C95671
:10285000DB4F08811981C759D44010270127102761
:10286000109352070093510780E090E0AAEFBBE37A
:102870008093490790934A07A0934B07B0934C0766
:10288000072E000C880B990B0E945F2A20E030E095
:102890004AEF5BE30E94B12B0E94272A70934807FE
:1028A00060934707B701FF0C880B990B0E945F2AC2
:1028B00020E030E04AEF5BE30E94B12B0E94272A20
:1028C0007093460760934507B801110F880B990B69
:1028D0000E945F2A20E030E04AEF5BE30E94B12BC8
:1028E0000E94272A70934407609343078DE397E083
:1028F0000E945F020E949302C0906E07D0906F0703
:10290000E0907007F090710760913D0770913E076D
:10291000072E000C880B990B0E945F2AA7019601D5
:102920000E94B12B2091310730913207409133073B
:10293000509134070E94B12B209125073091260732
:1029400040912707509128070E94B1280E94272A0A
:10295000709324076093230760913F0770914007AD
:10296000072E000C880B990B0E945F2AA701960185
:102970000E94B12B209135073091360740913707DF
:10298000509138070E94B12B2091290730912A07D6
:1029900040912B0750912C070E94B1280E94272AB2
:1029A000709322076093210760914107709142075D
:1029B000072E000C880B990B0E945F2AA701960135
:1029C0000E94B12B2091390730913A0740913B0783
:1029D00050913C070E94B12B20912D0730912E077A
:1029E00040912F07509130070E94B1280E94272A5A
:1029F0007093200760931F078FB7F89420916A07A0
:102A000030916B0740916C0750916D078FBF16B5E1
:102A1000A8EEB3E00E9497280E945D2A6B017C011A
:102A2000612F70E090E080E00E945F2A20E030E0BB
:102A300040E850E40E94B12B9B01AC01C701B601F4
:102A40000E94B2280E942E2A6B017C0180911B07F4
:102A500090911C07A0911D07B0911E079701860158
:102A6000081B190B2A0B3B0BC901B8010E945D2AF8
:102A700020E034E244E759E40E94B529C55BDA4F0F
:102A8000688379838A839B83CB54D54060931707EF
:102A9000709318078093190790931A07C0921B0729
:102AA000D0921C07E0921D07F0921E079B01AC011B
:102AB0006091130770911407809115079091160784
:102AC0000E94B22860931307709314078093150730
:102AD0009093160780910F0790911007A09111070E
:102AE000B09112070196A11DB11D80930F0790931D
:102AF0001007A0931107B09312072091530730914C
:102B000054074091550750915607CD5ADA4F288304
:102B100039834A835B83C355D54080915707909191
:102B20005807A0915907B0915A07C95BDA4F8883BB
:102B30009983AA83BB83C754D54000915B0710914A
:102B40005C0720915D0730915E07CD5BDA4F08830B
:102B500019832A833B83C354D540A9019801CA0134
:102B6000B8010E94B12B6B017C01C95BDA4F28814F
:102B700039814A815B81C754D540CA01B9010E949D
:102B8000B12B9B01AC01C701B6010E94B2286B01B9
:102B90007C01CD5ADA4F288139814A815B81C35546
:102BA000D540CA01B9010E94B12B9B01AC01C701FC
:102BB000B6010E94B2280E947C2CCD5DDA4F68835A
:102BC00079838A839B83C352D54020E030E0A901FA
:102BD0000E94AB29882311F40C94442360911F07B1
:102BE00070912007072E000C880B990B0E945F2A1A
:102BF000C15EDA4F688379838A839B83CF51D54046
:102C00006091230770912407072E000C880B990B05
:102C10000E945F2A4B015C0160912107709122079D
:102C2000072E000C880B990B0E945F2A2B013C0198
:102C3000AC019B010E94B12B6B017C01A5019401A9
:102C4000C501B4010E94B12B9B01AC01C701B601C3
:102C50000E94B2286B017C01C15EDA4F2881398164
:102C60004A815B81CF51D540CA01B9010E94B12B85
:102C70009B01AC01C701B6010E94B2280E947C2CC6
:102C80006B017C0120E030E0A9010E94AB29882380
:102C900011F40C9444236091430770914407072E6C
:102CA000000C880B990B0E945F2A2BED3FE049E452
:102CB00050E40E94B12B20E030E044E353E40E9452
:102CC000B529CF58DA4F688379838A839B83C157AC
:102CD000D5406091450770914607072E000C880B80
:102CE000990B0E945F2A2BED3FE049E450E40E94DB
:102CF000B12B20E030E044E353E40E94B529CB58E7
:102D0000DA4F688379838A839B83C557D540609166
:102D1000470770914807072E000C880B990B0E94FB
:102D20005F2A2BED3FE049E450E40E94B12B20E004
:102D300030E044E353E40E94B529C758DA4F688372
:102D400079838A839B83C957D540209100013091B4
:102D500001014091020150910301C95DDA4F2883BE
:102D600039834A835B83C752D54080910401909197
:102D70000501A0910601B0910701C55EDA4F888375
:102D80009983AA83BB83CB51D54000910801109150
:102D9000090120910A0130910B01C95EDA4F0883C5
:102DA00019832A833B83C751D54020910C01309170
:102DB0000D0140910E0150910F01CD5EDA4F288335
:102DC00039834A835B83C351D540C95DDA4F28817B
:102DD00039814A815B81C752D540CA01B9010E943D
:102DE000B228C15BDA4F688379838A839B83CF548F
:102DF000D540C55EDA4F288139814A815B81CB514C
:102E0000D540CA01B9010E94B228C35ADA4F68837B
:102E100079838A839B83CD55D540C95EDA4F28815B
:102E200039814A815B81C751D540CA01B9010E94ED
:102E3000B228CF59DA4F688379838A839B83C1563E
:102E4000D540CD5EDA4F288139814A815B81C351FB
:102E5000D540CA01B9010E94B228CF57DA4F688322
:102E600079838A839B83C158D540C95DDA4F288115
:102E700039814A815B81C752D540CA01B9010E949C
:102E8000B12BC95ADA4F688379838A839B83C755EC
:102E9000D540C55EDA4F288139814A815B81CB51AB
:102EA000D540C95DDA4F688179818A819B81C7529B
:102EB000D5400E94B12BC55CDA4F688379838A8341
:102EC0009B83CB53D540C95EDA4F288139814A8133
:102ED0005B81C751D540C95DDA4F688179818A81AC
:102EE0009B81C752D5400E94B12BCB57DA4F6883E4
:102EF00079838A839B83C558D540C55EDA4F288184
:102F000039814A815B81CB51D540CA01B9010E9408
:102F1000B12BCD5CDA4F688379838A839B83C3535B
:102F2000D540CD5EDA4F288139814A815B81C3511A
:102F3000D540C55EDA4F688179818A819B81CB510A
:102F4000D5400E94B12BC95CDA4F688379838A83AC
:102F50009B83C753D540C95EDA4F288139814A81A6
:102F60005B81C751D540CA01B9010E94B12BC55D33
:102F7000DA4F688379838A839B83CB52D540CD5EB9
:102F8000DA4F288139814A815B81C351D540CA011A
:102F9000B9010E94B12BC15CDA4F688379838A83BF
:102FA0009B83CF53D540CD5DDA4F288139814A814B
:102FB0005B81C352D54060E070E080E89FE30E94EF
:102FC000B529C358DA4F688379838A839B83CD57A9
:102FD000D540A701960160E070E080E89FE30E9481
:102FE000B5296B017C01AC019B01C301B2010E94B8
:102FF000B12BC15DDA4F688379838A839B83CF527B
:10300000D540A7019601C501B4010E94B12BCD5D49
:10301000DA4F688379838A839B83C352D540A701A3
:103020009601C15EDA4F688179818A819B81CF5197
:10303000D5400E94B12B2B013C01C15DDA4F2881A4
:1030400039814A815B81CF52D540C15BDA4F6881BB
:1030500079818A819B81CF54D5400E94B12BCB5975
:10306000DA4F688379838A839B83C556D540CD5DCB
:10307000DA4F288139814A815B81C352D540C15BD7
:10308000DA4F688179818A819B81CF54D5400E9433
:10309000B12BC759DA4F688379838A839B83C956DA
:1030A000D540A3019201C15BDA4F688179818A81A1
:1030B0009B81CF54D5400E94B12B4B015C01C15D77
:1030C000DA4F288139814A815B81CF52D540C35A7A
:1030D000DA4F688179818A819B81CD55D5400E94E4
:1030E000B12BC359DA4F688379838A839B83CD568A
:1030F000D540C15DDA4F288139814A815B81CF5249
:10310000D540C95ADA4F688179818A819B81C75538
:10311000D5400E94B12B6B017C01C759DA4F288141
:1031200039814A815B81C956D540CD5EDA4F6881CD
:1031300079818A819B81C351D5400E94B12B9B012B
:10314000AC01C701B6010E94B1286B017C01A50149
:103150009401C95EDA4F688179818A819B81C75168
:10316000D5400E94B12B9B01AC01C701B6010E9462
:10317000B2286B017C01C15DDA4F288139814A8117
:103180005B81CF52D540CD5CDA4F688179818A81ED
:103190009B81C353D5400E94B12B9B01AC01C70159
:1031A000B6010E94B2286B017C01CD5DDA4F288107
:1031B00039814A815B81C352D540C35ADA4F688155
:1031C00079818A819B81CD55D5400E94B12BC95E02
:1031D000DA4F288139814A815B81C751D5400E94ED
:1031E000B12B9B01AC01C701B6010E94B2286B0153
:1031F0007C01A3019201C35ADA4F688179818A81E7
:103200009B81CD55D5400E94B12BCD5EDA4F2881F0
:1032100039814A815B81C351D5400E94B12B9B010A
:10322000AC01C701B6010E94B2286B017C01C15DEF
:10323000DA4F288139814A815B81CF52D540C55D03
:10324000DA4F688179818A819B81CB52D5400E9477
:10325000B12B9B01AC01C701B6010E94B1286B01E3
:103260007C01C15DDA4F288139814A815B81CF526F
:10327000D540C15CDA4F688179818A819B81CF53C7
:10328000D5400E94B12B9B01AC01C701B6010E9441
:10329000B1286B017C01CB59DA4F288139814A81F1
:1032A0005B81C556D540CD5EDA4F688179818A81D0
:1032B0009B81C351D5400E94B12BC15EDA4F688318
:1032C00079838A839B83CF51D540CD5DDA4F2881A6
:1032D00039814A815B81C352D540C95ADA4F68812E
:1032E00079818A819B81C755D5400E94B12B9B0172
:1032F000AC01C15EDA4F688179818A819B81CF51AF
:10330000D5400E94B228C15EDA4F688379838A83F0
:103310009B83CF51D540A5019401C55EDA4F6881EA
:1033200079818A819B81CB51D5400E94B12B9B0131
:10333000AC01C15EDA4F688179818A819B81CF516E
:10334000D5400E94B1284B015C01C359DA4F288156
:1033500039814A815B81CD56D540C95EDA4F68819B
:1033600079818A819B81C751D5400E94B12B9B01F5
:10337000AC01C501B4010E94B2284B015C01CD5DD6
:10338000DA4F288139814A815B81C352D540CD5CB7
:10339000DA4F688179818A819B81C353D5400E942D
:1033A000B12B9B01AC01C501B4010E94B1284B01B6
:1033B0005C01CD5DDA4F288139814A815B81C3523E
:1033C000D540C55DDA4F688179818A819B81CB5276
:1033D000D5400E94B12B9B01AC01C501B4010E94F4
:1033E000B2284B015C01A3019201CF59DA4F6881E9
:1033F00079818A819B81C156D5400E94B12BCD5ED7
:10340000DA4F288139814A815B81C351D5400E94BE
:10341000B12B9B01AC01C501B4010E94B2284B0144
:103420005C01CD5DDA4F288139814A815B81C352CD
:10343000D540C15CDA4F688179818A819B81CF5305
:10344000D5400E94B12B9B01AC01C501B4010E9483
:10345000B1284B015C01A7019601C701B6010E948A
:10346000B12B6B017C01A5019401C501B4010E943F
:10347000B12B9B01AC01C701B6010E94B2280E948A
:103480007C2CC15EDA4F688379838A839B83CF511A
:10349000D540CB59DA4F688179818A819B81C556A5
:1034A000D5409058C95EDA4F288139814A815B81C5
:1034B000C751D5400E94B12B6B017C01C759DA4F2F
:1034C000288139814A815B81C956D540C55EDA4F72
:1034D000688179818A819B81CB51D5400E94B12B33
:1034E0009B01AC01C701B6010E94B2286B017C01AF
:1034F000A3019201C95ADA4F688179818A819B813F
:10350000C755D5400E94B12B9B01AC01C701B60144
:103510000E94B2286B017C01C359DA4F288139819E
:103520004A815B81CD56D540CD5EDA4F6881798185
:103530008A819B81C351D5400E94B12B9B01AC0174
:10354000C701B6010E94B2286B017C01A301920160
:10355000CD5CDA4F688179818A819B81C353D540E4
:103560000E94B12B9B01AC01C701B6010E94B1289A
:103570006B017C01CD5DDA4F288139814A815B8105
:10358000C352D540CF59DA4F688179818A819B81B6
:10359000C156D5400E94B12BCD5EDA4F28813981CA
:1035A0004A815B81C351D5400E94B12B9B01AC0184
:1035B000C701B6010E94B2286B017C01A3019201F0
:1035C000C55DDA4F688179818A819B81CB52D54074
:1035D0000E94B12B9B01AC01C701B6010E94B1282A
:1035E0006B017C01A3019201C15CDA4F6881798192
:1035F0008A819B81CF53D5400E94B12B9B01AC01A6
:10360000C701B6010E94B2286B017C01AC019B018D
:103610000E94B228CB59DA4F688379838A839B83CF
:10362000C556D540C95CDA4F288139814A815B8112
:10363000C753D540CA01B9010E94B2284B015C01B1
:10364000C15BDA4F288139814A815B81CF54D540F3
:10365000C95EDA4F688179818A819B81C751D540E3
:103660000E94B12B9B01AC01C501B4010E94B1289D
:103670004B015C01C358DA4F288139814A815B8153
:10368000CD57D540CD5BDA4F688179818A819B81A6
:10369000C354D5400E94B12B9B01AC01C501B401BC
:1036A0000E94B128CD5BDA4F688379838A839B833C
:1036B000C354D540CF59DA4F288139814A815B8183
:1036C000C156D540CD5EDA4F688179818A819B8170
:1036D000C351D5400E94B12B4B015C01C55CDA4F50
:1036E000288139814A815B81CB53D540CA01B90118
:1036F0000E94B2289B01AC01C501B4010E94B2280E
:103700004B015C01C358DA4F288139814A815B81C2
:10371000CD57D540C95BDA4F688179818A819B8119
:10372000C754D5400E94B12B9B01AC01C501B40127
:103730000E94B128C95BDA4F688379838A839B83AF
:10374000C754D540A7019601C95EDA4F68817981D7
:103750008A819B81C751D5400E94B12BC759DA4F4E
:10376000688379838A839B83C956D540C55DDA4FC8
:10377000288139814A815B81CB52D54060E070E07D
:1037800080E09FE30E94B128C15CDA4F2881398133
:103790004A815B81CF53D5400E94B128C15EDA4F88
:1037A000288139814A815B81CF51D5400E94B12B5C
:1037B0004B015C01CB57DA4F288139814A815B810B
:1037C000C558D540C95CDA4F688179818A819B816F
:1037D000C753D5400E94B128A70196010E94B12B82
:1037E0009B01AC01C501B4010E94B228C15DDA4F52
:1037F000288139814A815B81CF52D5400E94B1280E
:10380000C15DDA4F688379838A839B83CF52D54029
:10381000C15EDA4F88819981AA81BB81CF51D540A1
:10382000B058C95ADA4F88839983AA83BB83C75596
:10383000D540A7019601C55EDA4F688179818A81FA
:103840009B81CB51D5400E94B12BC359DA4F68837D
:1038500079838A839B83CD56D540C95EDA4F288110
:1038600039814A815B81C751D540C55EDA4F688195
:1038700079818A819B81CB51D5400E94B12B4B012C
:103880005C01CD5EDA4F288139814A815B81C35169
:10389000D540C95DDA4F688179818A819B81C752A1
:1038A000D5400E94B12B9B01AC01C501B4010E941F
:1038B000B128C15EDA4F288139814A815B81CF51BD
:1038C000D5400E94B12B4B015C01CD5EDA4F2881BF
:1038D00039814A815B81C351D540C95EDA4F688125
:1038E00079818A819B81C751D5400E94B12BC55CEB
:1038F000DA4F288139814A815B81CB53D5400E94C0
:10390000B228A70196010E94B12B9B01AC01C50111
:10391000B4010E94B228CD5DDA4F288139814A81F5
:103920005B81C352D5400E94B128CD5DDA4F6883D8
:1039300079838A839B83C352D540C15EDA4F288145
:1039400039814A815B81CF51D540C95EDA4F6881A8
:1039500079818A819B81C751D5400E94B12BC55C7A
:10396000DA4F688379838A839B83CB53D540CD5CC0
:10397000DA4F288139814A815B81C353D54060E0A9
:1039800070E080E09FE30E94B128C55DDA4F288196
:1039900039814A815B81CB52D5400E94B128A70171
:1039A00096010E94B12B4B015C01C95CDA4F288162
:1039B00039814A815B81C753D540CB57DA4F688143
:1039C00079818A819B81C558D5400E94B228C15E09
:1039D000DA4F288139814A815B81CF51D5400E94DD
:1039E000B12B9B01AC01C501B4010E94B228A30117
:1039F00092010E94B128C95CDA4F688379838A8377
:103A00009B83C753D540CF59DA4F688179818A812A
:103A10009B81C156D5409058CD5BDA4F28813981C2
:103A20004A815B81C354D5400E94B12B4B015C019C
:103A3000C95BDA4F288139814A815B81C754D540FF
:103A4000C35ADA4F688179818A819B81CD55D540EF
:103A50000E94B12B9B01AC01C501B4010E94B228A8
:103A60004B015C01C15DDA4F288139814A815B815C
:103A7000CF52D540C759DA4F688179818A819B81BD
:103A8000C956D5400E94B12B9B01AC01C501B401C0
:103A90000E94B1284B015C01C95ADA4F2881398153
:103AA0004A815B81C755D540CD5EDA4F6881798107
:103AB0008A819B81C351D5400E94B12BC359DA4FF3
:103AC000288139814A815B81CD56D5400E94B22838
:103AD000CD5DDA4F288139814A815B81C352D5405F
:103AE0000E94B12B9B01AC01C501B4010E94B22818
:103AF0004B015C01C95CDA4F288139814A815B81C5
:103B0000C753D540C55CDA4F688179818A819B8132
:103B1000CB53D5400E94B12B9B01AC01C501B40130
:103B20000E94B228C15CDA4F688379838A839B83C1
:103B3000CF53D540CD5CDA4F288139814A815B81F2
:103B4000C353D540CA01B9010E94B2289B01AC0100
:103B500060E070E080E89FE30E94B1284B015C01C7
:103B6000C55DDA4F288139814A815B81CB52D540CE
:103B7000CA01B9010E94B2289B01AC01C501B40180
:103B80000E94B1284B015C01C358DA4F288139816A
:103B90004A815B81CD57D540CD5ADA4F6881798112
:103BA0008A819B81C355D5400E94B12B9B01AC01FA
:103BB000C501B4010E94B128CD5CDA4F68837983D6
:103BC0008A839B83C353D540A7019601CD5EDA4F0C
:103BD000688179818A819B81C351D5400E94B12B34
:103BE0004B015C01A7019601C95DDA4F68817981BB
:103BF0008A819B81C752D5400E94B12BCD5ADA4FA2
:103C0000688379838A839B83C355D540CD5BDA4F24
:103C1000288139814A815B81C354D540CF57DA4F1F
:103C2000688179818A819B81C158D5400E94B12BDE
:103C30006B017C01C95BDA4F288139814A815B8144
:103C4000C754D540C15BDA4F688179818A819B81F5
:103C5000CF54D5400E94B12B9B01AC01C701B601E6
:103C60000E94B2286B017C0120E030E040E850E483
:103C7000C55EDA4F688179818A819B81CB51D540BD
:103C80000E94B12BCD5CDA4F288139814A815B815A
:103C9000C353D5400E94B12B9B01AC01C701B601B3
:103CA0000E94B1286B017C01A5019401C15DDA4F2E
:103CB000688179818A819B81CF52D5400E94B12B46
:103CC0009B01AC01C701B6010E94B2286B017C01C7
:103CD000CD5ADA4F288139814A815B81C355D5405D
:103CE000C55CDA4F688179818A819B81CB53D5404D
:103CF0000E94B228CD5DDA4F288139814A815B81EB
:103D0000C352D5400E94B12B9B01AC01C701B60143
:103D10000E94B2286B017C01C15EDA4F2881398193
:103D20004A815B81CF51D540CD5EDA4F6881798180
:103D30008A819B81C351D5400E94B12B2B013C014C
:103D4000CB59DA4F288139814A815B81C556D540EC
:103D5000C55EDA4F688179818A819B81CB51D540DC
:103D60000E94B12B9B01AC01C301B2010E94B1289A
:103D7000C95CDA4F288139814A815B81C753D540BC
:103D80000E94B12B9B01AC01C701B6010E94B22871
:103D9000C55DDA4F688379838A839B83CB52D54094
:103DA000C15EDA4F288139814A815B81CF51D5408C
:103DB000CA01B9010E94B2286B017C01F7FAF094A4
:103DC000F7F8F094C15EDA4F288139814A815B812E
:103DD000CF51D540C55EDA4F688179818A819B8158
:103DE000CB51D5400E94B12BC55CDA4F68837983F3
:103DF0008A839B83CB53D540C15BDA4F688179813D
:103E00008A819B81CF54D5409058CD5BDA4F288171
:103E100039814A815B81C354D5400E94B12B2B016B
:103E20003C01C95BDA4F288139814A815B81C754E3
:103E3000D540CF57DA4F688179818A819B81C158FB
:103E4000D5400E94B12B9B01AC01C301B2010E947D
:103E5000B2282B013C0120E030E040E850E4C95E8C
:103E6000DA4F688179818A819B81C751D5400E9450
:103E7000B12BCD5CDA4F288139814A815B81C353F4
:103E8000D5400E94B12B9B01AC01C301B2010E943D
:103E9000B1282B013C01A7019601C95EDA4F688168
:103EA00079818A819B81C751D5400E94B12BCD5A1F
:103EB000DA4F288139814A815B81C355D5400E9400
:103EC000B128C15DDA4F288139814A815B81CF52A7
:103ED000D5400E94B12B9B01AC01C301B2010E94ED
:103EE000B2282B013C01C55CDA4F288139814A8117
:103EF0005B81CB53D540C501B4010E94B228CD5D92
:103F0000DA4F288139814A815B81C352D5400E94B2
:103F1000B12B9B01AC01C301B2010E94B2284B013D
:103F20005C01C15EDA4F288139814A815B81CF51C2
:103F3000D540C95DDA4F688179818A819B81C752FA
:103F4000D5400E94B12B2B013C01CB59DA4F28817F
:103F500039814A815B81C556D540C95EDA4F688197
:103F600079818A819B81C751D5400E94B12B9B01E9
:103F7000AC01C301B2010E94B128C95CDA4F2881AB
:103F800039814A815B81C753D5400E94B12B9B0187
:103F9000AC01C501B4010E94B2282B013C01CD5BEC
:103FA000DA4F288139814A815B81C354D540C35A95
:103FB000DA4F688179818A819B81CD55D5400E94F5
:103FC000B12B4B015C01C95BDA4F288139814A81F1
:103FD0005B81C754D540CF59DA4F688179818A8196
:103FE0009B81C156D5400E94B12B9B01AC01C501FC
:103FF000B4010E94B2284B015C01A7019601CD5E7D
:10400000DA4F688179818A819B81C351D5400E94B2
:10401000B12BC359DA4F288139814A815B81CD5652
:10402000D5400E94B228C15DDA4F288139814A818A
:104030005B81CF52D5400E94B12B9B01AC01C501E1
:10404000B4010E94B2286B017C01C95ADA4F288161
:1040500039814A815B81C755D540C95DDA4F688196
:1040600079818A819B81C752D5400E94B12BC75963
:10407000DA4F288139814A815B81C956D5400E9437
:10408000B228CD5DDA4F288139814A815B81C352E4
:10409000D5400E94B12B9B01AC01C701B6010E9423
:1040A000B2286B017C01C55CDA4F288139814A81D5
:1040B0005B81CB53D540C95CDA4F688179818A81B5
:1040C0009B81C753D5400E94B12B9B01AC01C70116
:1040D000B6010E94B228C15EDA4F688379838A8371
:1040E0009B83CF51D540C15CDA4F288139814A8109
:1040F0005B81CF53D540CA01B9010E94B12B6B013E
:104100007C01C55DDA4F288139814A815B81CB52C0
:10411000D540CA01B9010E94B12B9B01AC01C70176
:10412000B6010E94B2286B017C01A3019201C30178
:10413000B2010E94B12B9B01AC01C701B6010E94E4
:10414000B2286B017C01C15EDA4F288139814A8136
:104150005B81CF51D540CA01B9010E94B12B9B01AF
:10416000AC01C701B6010E94B2280E947C2C9B01C1
:10417000AC0160E070E080E89FE30E94B5294B014C
:104180005C01C55EDA4F688179818A819B81CB5160
:10419000D5409058C758DA4F288139814A815B81D0
:1041A000C957D5400E94B12B6B017C01C95EDA4F23
:1041B000288139814A815B81C751D540CB58DA4F7C
:1041C000688179818A819B81C557D5400E94B12B36
:1041D0009B01AC01C701B6010E94B1286B017C01B3
:1041E000CD5EDA4F288139814A815B81C351D54048
:1041F000CF58DA4F688179818A819B81C157D54038
:104200000E94B12B9B01AC01C701B6010E94B128ED
:1042100020E030E040E05FE30E94B12B6B017C01C5
:10422000A5019401C15CDA4F688179818A819B8103
:10423000CF53D5400E94B12B2DE037EC4AE15FE32C
:104240000E94B12B9B01AC01C701B6010E94B128AD
:10425000C55BDA4F288139814A815B81CB54D540D7
:104260000E94B12BC95DDA4F288139814A815B8177
:10427000C752D5400E94B228CD5DDA4F688379835A
:104280008A839B83C352D540C95DDA4F2881398127
:104290004A815B81C752D540C758DA4F688179811E
:1042A0008A819B81C957D5400E94B12B6B017C014B
:1042B000C95EDA4F288139814A815B81C751D54077
:1042C000CF58DA4F688179818A819B81C157D54067
:1042D0000E94B12B9B01AC01C701B6010E94B2281C
:1042E0006B017C01CD5EDA4F288139814A815B8187
:1042F000C351D540CB58DA4F688179818A819B813F
:10430000C557D5400E94B12B9B01AC01C701B60136
:104310000E94B12820E030E040E05FE30E94B12B32
:104320006B017C01A5019401C55DDA4F688179813B
:104330008A819B81CB52D5400E94B12B2DE037EC76
:104340004AE15FE30E94B12B9B01AC01C701B601BA
:104350000E94B128C55BDA4F288139814A815B818F
:10436000CB54D5400E94B12BC55EDA4F28813981EC
:104370004A815B81CB51D5400E94B228C55DDA4F9E
:10438000688379838A839B83CB52D540C95DDA4F9A
:10439000288139814A815B81C752D540CB58DA4F99
:1043A000688179818A819B81C557D5400E94B12B54
:1043B0006B017C01C55EDA4F288139814A815B81BE
:1043C000CB51D540CF58DA4F688179818A819B8162
:1043D000C157D5400E94B12B9B01AC01C701B6016A
:1043E0000E94B1286B017C01CD5EDA4F28813981B2
:1043F0004A815B81C351D540C758DA4F68817981C2
:104400008A819B81C957D5400E94B12B9B01AC0189
:10441000C701B6010E94B22820E030E040E05FE32F
:104420000E94B12B6B017C01A5019401C301B20173
:104430000E94B12B2DE037EC4AE15FE30E94B12BE3
:104440009B01AC01C701B6010E94B128C55BDA4FE0
:10445000288139814A815B81CB54D5400E94B12BA0
:10446000C95EDA4F288139814A815B81C751D540C5
:104470000E94B2282B013C01C95DDA4F28813981A5
:104480004A815B81C752D540CF58DA4F6881798124
:104490008A819B81C157D5400E94B12B6B017C0161
:1044A000C55EDA4F288139814A815B81CB51D54085
:1044B000CB58DA4F688179818A819B81C557D54075
:1044C0000E94B12B9B01AC01C701B6010E94B2282A
:1044D0006B017C01C95EDA4F288139814A815B8199
:1044E000C751D540C758DA4F688179818A819B814D
:1044F000C957D5400E94B12B9B01AC01C701B60141
:104500000E94B12820E030E040E05FE30E94B12B40
:104510006B017C01A5019401C15EDA4F688179814C
:104520008A819B81CF51D5400E94B12B2DE037EC81
:104530004AE15FE30E94B12B9B01AC01C701B601C8
:104540000E94B128C55BDA4F288139814A815B819D
:10455000CB54D5400E94B12BCD5EDA4F28813981F2
:104560004A815B81C351D5400E94B2284B015C0156
:10457000CD5DDA4F288139814A815B81C352D540B4
:10458000CA01B9010E94B12B6B017C01C55DDA4FF4
:10459000288139814A815B81CB52D540CA01B9015A
:1045A0000E94B12B9B01AC01C701B6010E94B22849
:1045B0006B017C01A3019201C301B2010E94B12BE6
:1045C0009B01AC01C701B6010E94B2286B017C01BE
:1045D000A5019401C501B4010E94B12B9B01AC015E
:1045E000C701B6010E94B2280E947C2C9B01AC013D
:1045F00060E070E080E89FE30E94B5296B017C01D8
:10460000AC019B01CD5DDA4F688179818A819B8104
:10461000C352D5400E94B12B6093000170930101F9
:104620008093020190930301A7019601C55DDA4FC3
:10463000688179818A819B81CB52D5400E94B12BC0
:104640006093040170930501809306019093070124
:10465000A7019601C301B2010E94B12B609308012A
:104660007093090180930A0190930B01A7019601B1
:10467000C501B4010E94B12B60930C0170930D0130
:1046800080930E0190930F012FB7F89480916A07E1
:1046900090916B07A0916C07B0916D072FBF40916F
:1046A0000B0750910C0760910D0770910E07841B4A
:1046B000950BA60BB70BC397A105B10510F40C948D
:1046C00047120091000110910101209102013091E7
:1046D0000301CD5EDA4F088319832A833B83C351DC
:1046E000D540A9019801CA01B8010E94B12BC55E4D
:1046F000DA4F688379838A839B83CB51D54020919D
:104700000401309105014091060150910701C95EF5
:10471000DA4F288339834A835B83C751D540CA0166
:10472000B9010E94B12BC95DDA4F688379838A830E
:104730009B83C752D540409008015090090160907A
:104740000A0170900B01A3019201C301B2010E9402
:10475000B12BC15EDA4F688379838A839B83CF5103
:10476000D540C0900C01D0900D01E0900E01F0906A
:104770000F01A7019601C701B6010E94B12BCD5DC3
:10478000DA4F688379838A839B83C352D540C95D9E
:10479000DA4F288139814A815B81C752D540C55E95
:1047A000DA4F688179818A819B81CB51D5400E9403
:1047B000B228C15EDA4F288139814A815B81CF51AD
:1047C000D5400E94B128CD5DDA4F288139814A81D8
:1047D0005B81C352D5400E94B1284B015C01A3010B
:1047E0009201C95EDA4F688179818A819B81C751C4
:1047F000D5400E94B12BC55DDA4F688379838A83E7
:104800009B83CB52D540A7019601CD5EDA4F6881DC
:1048100079818A819B81C351D5400E94B12B9B0134
:10482000AC01C55DDA4F688179818A819B81CB5269
:10483000D5400E94B2289B01AC010E94B228A5017C
:1048400094010E944C29C55DDA4F688379838A837D
:104850009B83CB52D540A7019601C95EDA4F688190
:1048600079818A819B81C751D5400E94B12B4B0130
:104870005C01A3019201CD5EDA4F688179818A8162
:104880009B81C351D5400E94B12B9B01AC01C50156
:10489000B4010E94B1289B01AC010E94B2280E9481
:1048A0001E29C15DDA4F688379838A839B83CF5247
:1048B000D540C95DDA4F288139814A815B81C75271
:1048C000D540C55EDA4F688179818A819B81CB5161
:1048D000D5400E94B128C15EDA4F288139814A81D2
:1048E0005B81CF51D5400E94B128CD5DDA4F288140
:1048F00039814A815B81C352D5400E94B2284B0165
:104900005C01C95EDA4F288139814A815B81C751D8
:10491000D540CD5EDA4F688179818A819B81C35110
:10492000D5400E94B12BCD5EDA4F688379838A83AC
:104930009B83C351D540A7019601C301B2010E94D8
:10494000B12B9B01AC01CD5EDA4F688179818A8100
:104950009B81C351D5400E94B2289B01AC010E94AB
:10496000B228A50194010E944C296B017C01C15D14
:10497000DA4F688179818A819B81CF52D5409058E6
:1049800020EE3EE245E652E40E94B12B162F072F9F
:10499000B82EA92EA8019501852F942FA32FB22FF1
:1049A0008093070790930807A0930907B0930A071D
:1049B00020EE3EE245E652E4C55DDA4F688179813A
:1049C0008A819B81CB52D5400E94B12B2DEC3CECCF
:1049D0004CE150E40E94B1282B013C0140920307B6
:1049E00050920407609205077092060720EE3EE29F
:1049F00045E652E4C701B6010E94B12BF62EE72E20
:104A0000D82EC92EA7019601852F942FA32FB22F40
:104A10008093FF0690930007A0930107B0930207CD
:104A200080E40E946301CF92DF92EF92FF92AF92F7
:104A3000BF920F931F9320E030E044E353E4C3019F
:104A4000B2010E94B2289F938F937F936F9388EB5C
:104A500096E09F938F930E94F30283E20E9463018A
:104A600080EC94E09F938F930E94F3022FB7F89409
:104A700080916A0790916B07A0916C07B0916D07C8
:104A80002FBF80930B0790930C07A0930D07B09353
:104A90000E0710920F071092100710921107109234
:104AA0001207109213071092140710921507109214
:104AB00016070FB6F894DEBF0FBECDBF0C94471299
:104AC0008091FE06882329F082E0809369070C9488
:104AD00047128E010D5F1B4F20E030E040E052E4B2
:104AE000D8016D917D918D919C910E94B228F80121
:104AF000608371838283938320E030E040E052E45E
:104B000064817581868197810E94B228D8011496AC
:104B10006D937D938D939C931797045F1F4FC75799
:104B2000DA4FE881F981C958D5400E171F07A1F661
:104B3000FE0131961192C55ADA4F08811981CB5581
:104B4000D540E017F107B1F781E08093FE06BCCFB6
:104B5000FE0131961192C55ADA4F08811981CB5561
:104B6000D540E017F107B1F71E011DEF211A1BEF29
:104B7000310A810120E030E040E052E4D8016D913B
:104B80007D918D919C910E94B128F8016083718381
:104B90008283938320E030E040E052E464817581B9
:104BA000868197810E94B128D80114966D937D93D8
:104BB0008D939C931797045F1F4FC757DA4FE88177
:104BC000F981C958D5400E171F07A1F6C090FF06FE
:104BD000D0900007E0900107F0900207C701B601EE
:104BE0000E946E2C2B013C01C701B6010E94B02926
:104BF000C95EDA4F688379838A839B83C751D54026
:104C0000CD5EDA4F39822882C351D540CD5EDA4F6E
:104C1000A881B981C351D540CD90DD90ED90FC9035
:104C2000139718968D909D90AD90BC901B97A701FF
:104C30009601C95EDA4F688179818A819B81C7516B
:104C4000D5400E94B12BC55EDA4F688379838A8391
:104C50009B83CB51D540A5019401C301B2010E94B1
:104C6000B12B9B01AC01C55EDA4F688179818A81E5
:104C70009B81CB51D5400E94B128CD5EDA4FE881AF
:104C8000F981C351D5406083718382839383A501E9
:104C90009401C95EDA4F688179818A819B81C7510D
:104CA000D5400E94B12B4B015C01A7019601C301C5
:104CB000B2010E94B12B9B01AC01C501B4010E945D
:104CC000B228CD5EDA4FA881B981C351D54018967C
:104CD0006D937D938D939C931B971C96CD5EDA4FBD
:104CE000B983A883C351D540A017B10709F08ECF6F
:104CF000C0900707D0900807E0900907F0900A07D6
:104D0000C701B6010E946E2C2B013C01C701B60100
:104D10000E94B029C95EDA4F688379838A839B83B6
:104D2000C751D5408E01095F1B4FF801C080D1806B
:104D3000E280F38084809580A680B780A7019601E9
:104D4000C95EDA4F688179818A819B81C751D540DC
:104D50000E94B12BC55EDA4F688379838A839B8377
:104D6000CB51D540A5019401C301B2010E94B12BE2
:104D70009B01AC01C55EDA4F688179818A819B8194
:104D8000CB51D5400E94B128D8016D937D938D936E
:104D90009C931397A5019401C95EDA4F68817981CC
:104DA0008A819B81C751D5400E94B12B4B015C0188
:104DB000A7019601C301B2010E94B12B9B01AC0176
:104DC000C501B4010E94B228F8016483758386830B
:104DD0009783045F1F4FC557DA4F28813981CB581D
:104DE000D5400217130709F0A0CF20E030E040E0E3
:104DF00052E4D1016D917D918D919C910E94B228D8
:104E0000F101608371838283938320E030E040E08E
:104E100052E464817581868197810E94B228D10114
:104E200014966D937D938D939C931797BCE02B0EF6
:104E3000311CCD5EDA4F08811981C351D54020164F
:104E4000310699F67E011DE9E11A1BEFF10A7CE0BB
:104E5000B72ED7010D911C91119712968D919C91AF
:104E6000B89E4001B99E900C1124E1E0F0E0EC0FF7
:104E7000FD1F8E0E9F1EF401EA5FFB4F6081718162
:104E8000828193810E942E2AD62EF401EE5FFB4F81
:104E900060817181828193810E942E2AC62EB09EEC
:104EA0004001B19E900C112401E010E00C0F1D1F79
:104EB000800E911EF401EA5FFB4F60817181828157
:104EC00093810E942E2A162FF401EE5FFB4F608122
:104ED0007181828193810E942E2A062F2C2D261B00
:104EE000330BB901072E000C880B990B0E945F2A27
:104EF0009F770E94272A2B014B014D2D411B550BFB
:104F0000BA01072E000C880B990B0E945F2A9F772D
:104F10000E94272A1B01B1E00C1508F0BFEFA1E0A9
:104F20001D1508F0AFEF461A570A2227332722191A
:104F3000330907FD1FC01034E8F4E12FE695E6952C
:104F4000E69550E8E59FF0011124E00FF11D81E0A6
:104F500090E08C0F9D1FE80FF91F412F477081E0F3
:104F600090E002C0880F991F4A95E2F7AC0150818A
:104F7000452B4083C01202C0D11681F0A201440F1C
:104F8000551F241735071CF4421853080B0F4815FA
:104F900059057CF6480C591C1A0FCBCF94E0E90E4A
:104FA000F11CC357DA4F08811981CD58D5400E1531
:104FB0001F0509F04ECF61E2CE018F5F9B4F0E942B
:104FC000D90260E0CE018F5F9B4F0E94D9026FE74C
:104FD000CE018F5F9B4F0E94D90262E2CE018F5FAC
:104FE0009B4F0E94D90260E0CE018F5F9B4F0E94D1
:104FF000D90267E0CE018F5F9B4F0E94D9028E01DC
:105000000F5F1F4F80E4D82E94E9B92ECE018F5F39
:105010009B4F0E94B30260E4CE018F5F9B4F0E94C2
:10502000A0027801C12CD7016D917D01CE018F5F67
:105030009B4F0E94A002C394B0E1CB12F4CFB09278
:10504000BC008091BC0084FDFCCFDA94005F1F4F50
:10505000D110DCCF809169078F5F37CDAA1BBB1BB6
:1050600051E107C0AA1FBB1FA617B70710F0A61B68
:10507000B70B881F991F5A95A9F780959095BC0189
:10508000CD01089597FB072E16F4009407D077FD05
:1050900009D00E942E2807FC05D03EF490958195FA
:1050A0009F4F0895709561957F4F0895A1E21A2E44
:1050B000AA1BBB1BFD010DC0AA1FBB1FEE1FFF1FBC
:1050C000A217B307E407F50720F0A21BB30BE40B0C
:1050D000F50B661F771F881F991F1A9469F7609553
:1050E0007095809590959B01AC01BD01CF0108950D
:1050F000052E97FB1EF400940E948F2857FD07D0C1
:105100000E94562807FC03D04EF40C948F2850952B
:105110004095309521953F4F4F4F5F4F08959095A3
:105120008095709561957F4F8F4F9F4F08950E9496
:10513000A228A59F900DB49F900DA49F800D911D56
:1051400011240895A29FB001B39FC001A39F700DC9
:10515000811D1124911DB29F700D811D1124911D7F
:1051600008955058BB27AA270E94C9280C945B2B8E
:105170000E94222B38F00E94292B20F039F49F3F07
:1051800019F426F40C94E42A0EF4E095E7FB0C9451
:10519000DE2AE92F0E94802B58F3BA1762077307A3
:1051A0008407950720F079F4A6F50C94A22B0EF451
:1051B000E0950B2EBA2FA02D0B01B90190010C0127
:1051C000CA01A0011124FF27591B99F0593F50F43F
:1051D000503E68F11A16F040A22F232F342F442797
:1051E000585FF3CF469537952795A795F04053958F
:1051F000C9F77EF41F16BA0B620B730B840BBAF05F
:105200009150A1F0FF0FBB1F661F771F881FC2F7C9
:105210000EC0BA0F621F731F841F48F487957795DD
:105220006795B795F7959E3F08F0B0CF9395880F97
:1052300008F09927EE0F9795879508959F939F778C
:10524000EEE389379E0728F4E8E6F0E00E940E2B93
:105250000CC00E949A2A9058A2EA2AED3FE049EC3D
:105260005FE30E94C9280E945B2B0F9007FC9058B7
:1052700008950E94222B60F080E891E009F49EEFEF
:105280000E94292B28F040E851E071F45EEF0CC039
:105290000C94E42A0C94A22BE92FE0780E94802B36
:1052A00040F3092E052AB1F3261737074807590797
:1052B00038F00E2E07F8E02569F0E025E0640AC01A
:1052C000EF6307F8009407FADB01B9019D01DC01E7
:1052D000CA01AD01EF930E94CC290E945B2B0E9472
:1052E0007C295F91552339F02BED3FE049E450FDD7
:1052F00049EC0C94B2280895DF93DD27B92FBF77CE
:1053000040E85FE31616170648075B0718F4D92F25
:105310000E94A92B9F938F937F936F930E94BC2C25
:10532000ECE7F0E00E94E72A0E945B2B2F913F916F
:105330004F915F910E94C42BDD2351F09058A2EA57
:105340002AED3FE049EC5FE3D0785D270E94C92851
:10535000DF910C945B2B0E94BA2A08F481E0089537
:105360000E94322BE3950C946C2B0E94C9290C945B
:105370005B2B0E94292B58F00E94222B40F029F42D
:105380005F3F29F00C94DE2A51110C94A32B0C944E
:10539000E42A0E94802B68F39923B1F3552391F3FB
:1053A000951B550BBB27AA2762177307840738F094
:1053B0009F5F5F4F220F331F441FAA1FA9F335D0F1
:1053C0000E2E3AF0E0E832D091505040E695001CA5
:1053D000CAF72BD0FE2F29D0660F771F881FBB1F5F
:1053E000261737074807AB07B0E809F0BB0B802D3D
:1053F000BF01FF2793585F4F3AF09E3F510578F069
:105400000C94DE2A0C94A32B5F3FE4F3983ED4F374
:10541000869577956795B795F7959F5FC9F7880F3C
:10542000911D9695879597F90895E1E0660F771F8E
:10543000881FBB1F621773078407BA0720F0621B1F
:10544000730B840BBA0BEE1F88F7E09508950E944A
:105450002E2A6894B1110C94A32B08950E94882BD6
:1054600088F09F5798F0B92F9927B751B0F0E1F025
:10547000660F771F881F991F1AF0BA95C9F714C0D5
:10548000B13091F00E94A22BB1E008950C94A22BB0
:10549000672F782F8827B85F39F0B93FCCF386950E
:1054A00077956795B395D9F73EF49095809570956B
:1054B00061957F4F8F4F9F4F0895E89409C097FBE8
:1054C0003EF490958095709561957F4F8F4F9F4FDB
:1054D0009923A9F0F92F96E9BB279395F69587951F
:1054E00077956795B795F111F8CFFAF4BB0F11F4E2
:1054F00060FF1BC06F5F7F4F8F4F9F4F16C0882389
:1055000011F096E911C0772321F09EE8872F762FBE
:1055100005C0662371F096E8862F70E060E02AF0FF
:105520009A95660F771F881FDAF7880F96958795EB
:1055300097F90895DF93CF931F930F938B01EC019D
:10554000E9EAF0E00E94E72A0E945B2B9801AE0195
:105550008B01EC0160E070E080E89FE30E94B128DD
:105560000E947C2C9801AE010F911F91CF91DF9189
:105570000C94C42B990F0008550FAA0BE0E8FEEF1E
:1055800016161706E807F907C0F012161306E40707
:10559000F50798F0621B730B840B950B39F40A2600
:1055A00061F0232B242B252B21F408950A2609F4DE
:1055B000A140A6958FEF811D811D089597F99F67E2
:1055C00080E870E060E008959FEF80EC0895DF933D
:1055D000CF931F930F93FF92EF92DF927B018C0189
:1055E000689406C0DA2EEF010E94C42BFE01E894F5
:1055F000A5912591359145915591A6F3EF010E9412
:10560000C928FE019701A801DA9469F7DF90EF90AD
:10561000FF900F911F91CF91DF9108959F938F93EA
:105620007F936F93FF93EF939B01AC010E94B12B8B
:10563000EF91FF910E94E72A2F913F914F915F9147
:105640000C94B12B00240A941616170618060906A6
:10565000089500240A9412161306140605060895E8
:105660000C94E42A0E94882BD8F3E894E0E0BB274E
:105670009F57F0F02AED3FE049EC06C0EE0FBB0F5C
:10568000661F771F881F28F0B23A620773078407E6
:1056900028F0B25A620B730B840BE3959A9572F75C
:1056A000803830F49A95BB0F661F771F881FD2F79A
:1056B00090480C94FC2C092E0394000C11F48823C0
:1056C00052F0BB0F40F4BF2B11F460FF04C06F5FBA
:1056D0007F4F8F4F9F4F0895EF93E0FF07C0A2EADF
:1056E0002AED3FE049EC5FEB0E94C9280E945B2B4A
:1056F0000F90039401FC9058E1EDF0E00C940E2B18
:1057000057FD9058440F551F59F05F3F71F0479572
:10571000880F97FB991F61F09F3F79F08795089557
:10572000121613061406551FF2CF4695F1DF08C076
:10573000161617061806991FF1CF86957105610593
:1057400008940895E894BB2766277727CB0197F93B
:1057500008959B01AC0160E070E080E89FE30C9449
:10576000B5290E94C42B0C945B2B0E94222B38F08D
:105770000E94292B20F0952311F00C94DE2A0C9422
:10578000E42A11240C94A32B0E94802B70F3959F84
:10579000C1F3950F50E0551F629FF001729FBB2728
:1057A000F00DB11D639FAA27F00DB11DAA1F649FC4
:1057B0006627B00DA11D661F829F2227B00DA11D77
:1057C000621F739FB00DA11D621F839FA00D611DFD
:1057D000221F749F3327A00D611D231F849F600D1E
:1057E000211D822F762F6A2F11249F5750409AF047
:1057F000F1F088234AF0EE0FFF1FBB1F661F771FD3
:10580000881F91505040A9F79E3F510580F00C949D
:10581000DE2A0C94A32B5F3FE4F3983ED4F38695E5
:1058200077956795B795F795E7959F5FC1F7FE2B3D
:10583000880F911D9695879597F90895FA01EE0FB7
:10584000FF1F309621053105A1F16115710561F445
:105850008038BFE39B0749F168949038810561F077
:105860008038BFEF9B0741F099234AF5FF3FE105E0
:105870003105210519F1E8940894E795D901AA2387
:1058800029F4AB2FBE2FF85FD0F310C0FF5F70F488
:10589000A695E0F7F73950F019F0FF3A38F49F7702
:1058A0009F930DD00F9007FC9058089546F00C94EC
:1058B000E42A60E070E080E89FE308954FE79F7777
:1058C0005F934F933F932F930E94512D2F913F91C0
:1058D0004F915F910E94B12B0C94C82C9F930E9412
:1058E000322B0F9007FCEE5F0C946C2B19F416F41E
:1058F0000C94E42A0C94FA2C0E94882BB8F3992378
:10590000C9F3B6F39F57550B87FF0E94082D00245B
:10591000A0E640EA900180585695979528F4805C5F
:10592000660F771F881F20F026173707480730F4C7
:10593000621B730B840B202931294A2BA6951794DF
:105940000794202531254A2758F7660F771F881FAF
:1059500020F026173707480730F4620B730B840BCF
:10596000200D311D411DA09581F7B901842F91585B
:10597000880F9695879508959B01AC010C94B12BE7
:1059800029F416F00C94DE2A0C94A22B0C94E42A31
:105990000E94882BA8F39638A0F707F80F92E89496
:1059A0002BE33AEA48EB5FE70E94C72B0F920F9276
:1059B0000F924DB75EB70F920E94992DEFEEF0E077
:1059C0000E94E72A4F915F91EF91FF91E595EE1FBD
:1059D000FF1F49F0FE57E0684427EE0F441FFA9579
:1059E000E1F74195550B0E94132D0F9007FE0C9483
:1059F000A92B08959F3F31F0915020F4879577951A
:105A00006795B795880F911D9695879597F9089595
:105A100091505040660F771F881FD2F708950C945D
:105A2000DE2A0C94FA2C0E94882BD8F39923C9F310
:105A3000940F511DA3F39150504094F059F08823D6
:105A400032F0660F771F881F91505040C1F79E3F7C
:105A500051052CF7880F911D9695879597F9089514
:105A60005F3FACF0983E9CF0BB2786957795679595
:105A7000B79508F4B1609395C1F7BB0F58F711F4CF
:105A800060FFE8CF6F5F7F4F8F4F9F4FE3CF0C9446
:105A9000A32B16F00C94FA2C0C94E42A68940C9422
:105AA000DE2A0E94882BA8F39923C1F3AEF3DF937B
:105AB000CF931F930F93FF92C92FDD2788232AF0DE
:105AC0002197660F771F881FDAF720E030E040E863
:105AD0005FEB9FE3883920F0803E38F021968F7786
