:100000000C9434000C9446000C9446000C9446006A
:100010000C9446000C9446000C9446000C94460048
:100020000C9446000C9446000C9446000C94460038
:100030000C9446000C9446000C946A010C94460003
:100040000C9446000C9446000C9446000C94460018
:100050000C9446000C9446000C9446000C94460008
:100060000C9452000C94460011241FBECFEFD8E030
:10007000DEBFCDBF21E0A0E0B1E001C01D92AE36F1
:10008000B207E1F70E948F010C9490010C940000DC
:1000900085ED8093BC008091BC0084FDFCCF109264
:1000A000480108951F920F920FB60F9211242F93BB
:1000B0003F934F935F936F937F938F939F93AF93F0
:1000C000BF93EF93FF938091B900887F803609F446
:1000D0004AC0F0F5883209F4A5C018F5803109F45A
:1000E00099C0B8F4882309F4F2C0883009F492C0AA
:1000F000FF91EF91BF91AF919F918F917F916F9100
:100100005F914F913F912F910F900FBE0F901F90D5
:100110001895883109F486C0803251F780934701E1
:1001200014C0803409F49BC040F48033B9F38833A1
:10013000F9F68093470185ECAEC0803509F483C0A1
:10014000883509F494C0883499F60E944800D0CFCD
:10015000883909F48AC038F5883729F050F4883690
:1001600011F0803729F683E0809348011092460110
:1001700055C0883809F479C0803919F0803809F001
:10018000B7CF80914601803208F06FC0E091460100
:1001900081E08E0F809346018091BB00F0E0EA5D24
:1001A000FE4F80833BC0803B39F0D0F4803A09F4A5
:1001B00077C0883A09F09CCF84E080934801109280
:1001C000250110922401F0E0E0E0099580912401DE
:1001D00081110FC081E0809324011092040109C0B5
:1001E000803C09F4A8CF883C09F4A5CF883B09F0EE
:1001F0007FCFE091250181E08E0F80932501F0E013
:10020000EC5FFE4F80818093BB009091250180912F
:10021000240129C080916D018093BB0085EC8093FF
:10022000BC0066CF90916C0180916B01981758F5D6
:10023000E0916C0181E08E0F80936C01F0E0E55B52
:10024000FE4F8081E9CFE0916C0181E08E0F8093B9
:100250006C018091BB00F0E0E55BFE4F80839091E4
:100260006C0180916B019817C8F285E8D8CFE091B6
:100270006C0181E08E0F80936C018091BB00F0E0F7
:10028000E55BFE4F808380914A0181115ECF81E062
:100290008093490184EA8093BC001092480128CFE2
:1002A00080914601803230F4E0914601F0E0EA5D51
:1002B000FE4F10820E9448006091460170E086E285
:1002C00091E0F0E0E0E009951092460134CF109201
:1002D00047013BCF1F920F920FB60F9211248F93BD
:1002E0009F93AF93BF938091000190910101A091E2
:1002F0000201B09103010196A11DB11D809300017F
:1003000090930101A0930201B0930301BF91AF91BB
:100310009F918F910F900FBE0F901F901895FFCF58
:04032000F894FFCF7F
:00000001FF
