:100000000C942E030C944B030C944B030C944B0355
:100010000C944B030C944B030C944B030C944C0525
:100020000C944B030C944B030C944B030C944B0318
:100030000C944B030C944B030C944B030C944B0308
:100040000C944B030C944B030C944B030C944B03F8
:100050000C944B030C944B030C944B030C944B03E8
:100060000C9434040C944B03000810200000000092
:10007000000000000000000000000000000000F888
:1000800000000000000000333000000000100C06EB
:10009000100C0600000000000000000040C0784086
:1000A000C0784000043F04043F040400007088FC52
:1000B00008300000001820FF211E0000F008F000AA
:1000C000E018000000211C031E211E0000F008881B
:1000D000700000001E2123241927211010160E0085
:1000E000000000000000000000000000000000E030
:1000F0001804020000000007182040000002041845
:10010000E00000000040201807000000404080F0A0
:10011000804040000202010F01020200000000F0D6
:10012000000000000101011F0101010000000000AA
:100130000000000080B0700000000000000000001F
:1001400000000000000101010101010100000000A8
:10015000000000000030300000000000000000003F
:1001600080601804006018060100000000E010081C
:100170000810E000000F102020100F00001010F8F1
:10018000000000000020203F202000000070080830
:1001900008887000003028242221300000300888B0
:1001A000884830000018202020110E000000C020D8
:1001B00010F8000000070424243F240000F80888F9
:1001C000880808000019212020110E0000E0108886
:1001D00088180000000F112020110E0000380808B8
:1001E000C83808000000003F0000000000708808C8
:1001F00008887000001C222121221C0000E0100849
:100200000810E0000000312222110F00000000C0A1
:10021000C00000000000003030000000000000803E
:10022000000000000000806000000000000080402E
:100230002010080000010204081020004040404047
:10024000404040000404040404040400000810209A
:1002500040800000002010080402010000704808DF
:100260000808F0000000003036010000C030C82847
:10027000E810E0000718272423140B000000C03802
:10028000E0000000203C23020227382008F888887C
:1002900088700000203F202020110E00C030080888
:1002A00008083800071820202010080008F808085F
:1002B0000810E000203F202020100F0008F8888858
:1002C000E8081000203F20202320180008F8888824
:1002D000E8081000203F200003000000C03008089C
:1002E0000838000007182020221E020008F8080025
:1002F0000008F808203F210101213F20000808F8EC
:10030000080800000020203F20200000000008080E
:10031000F8080800C08080807F00000008F888C0CE
:1003200028180800203F20012638200008F808007F
:1003300000000000203F20202020300008F8F800B6
:10034000F8F80800203F003F003F200008F830C0C8
:100350000008F808203F200007183F00E0100808B8
:100360000810E0000F10202020100F0008F80808E7
:100370000808F000203F210101010000E0100808FA
:100380000810E0000F18242438504F0008F888881F
:1003900088887000203F2000030C302000708808FF
:1003A000080838000038202121221C00180808F80D
:1003B000080818000000203F2000000008F808008E
:1003C0000008F808001F202020201F00087888005F
:1003D00000C83808000007380E010000F80800F8CF
:1003E0000008F800033C0700073C03000818688079
:1003F0008068180820302C03032C30200838C800EF
:10040000C83808000000203F20000000100808083D
:10041000C83808002038262120201800000000FEDF
:10042000020202000000007F40404000000C30C08B
:1004300000000000000000010638C00000020202B7
:10044000FE000000004040407F0000000000040269
:100450000202040000000000000000000000000094
:100460000000000080808080808080800002020484
:10047000000000000000000000000000000080807C
:10048000808000000019242222223F2008F80080EA
:1004900080000000003F112020110E0000000080AD
:1004A00080800000000E112020201100000000803C
:1004B0008088F800000E112020103F20000080806E
:1004C00080800000001F222222221300008080F082
:1004D000888888180020203F2020000000008080AD
:1004E00080808000006B94949493600008F80080F2
:1004F00080800000203F210000203F20008098984D
:10050000000000000020203F2020000000000080AC
:100510009898000000C08080807F000008F80000EC
:1005200080808000203F24022D302000000808F841
:10053000000000000020203F2020000080808080FC
:1005400080808000203F20003F20003F808000808E
:1005500080800000203F210000203F20000080809C
:1005600080800000001F202020201F00808000804D
:100570008000000080FFA12020110E0000000080FC
:1005800080808000000E112020A0FF8080808000ED
:100590008080800020203F2120000100000080801A
:1005A000808080000033242424241900008080E00F
:1005B000808000000000001F2020000080800000DC
:1005C00000808000001F202020103F2080808000BD
:1005D0000080808000010E300806010080800080CD
:1005E000008080800F300C030C300F0000808000F2
:1005F000808080000020312E0E312000808080001D
:100600000080808080818E701806010000808080CC
:10061000808080000021302C22213000000000006A
:10062000807C020200000000003F4040000000000B
:10063000FF00000000000000FF0000000002027C3C
:10064000800000000040403F000000000006010163
:1006500002020404000000000000000011241FBE7C
:10066000CFEFD8E0DEBFCDBF11E0A0E0B1E0ECE419
:10067000F8E102C005900D92A039B107D9F722E048
:10068000A0E9B1E001C01D92A630B207E1F70E94D7
:1006900071050C94240C0C94000085ED8093BC0033
:1006A0008091BC0084FDFCCF1092E0010895FC0114
:1006B0006093BB0084E88093BC008091BC0087FFFE
:1006C000FCCF9091B900987F918381E0983209F432
:1006D00080E00895FC0184EA8093BC008091BC0016
:1006E00087FFFCCF9091B900987F9183983021F0DB
:1006F000903111F081E0089580818093BB0084E8FF
:100700008093BC008091BC0087FFFCCF9091B90022
:10071000987F9183983111F0903461F780E00895CB
:100720001F93CF93DF93EC01162F0E946A0360E0C2
:10073000CE010E945703612FCE010E94570384E926
:100740008093BC008091BC0084FDFCCFDF91CF91F1
:100750001F91089567FD18C04034B0F4E42FE6956A
:10076000E695E69520E8E29FF0011124E60FF11DE1
:10077000E80FF91F477021E030E001C0220F4A95D1
:10078000EAF78081822B808308958F929F92AF92A7
:10079000BF92CF92DF92EF92FF920F931F93CF936E
:1007A000DF936C01922EC62F660FDD0BA09784E0BD
:1007B000CC0FDD1F8A95E1F7CE0184599F4F5C0174
:1007C000142F98E0892E840E042FF12CE12CF501D2
:1007D000849190E00E2C02C0959587950A94E2F7DB
:1007E00080FF06C0492D4E0D602FC6010E94AA034E
:1007F000FFEFEF1AFF0A88E0E816F10441F79FEFD8
:10080000A91AB90A0F5F0811E0CFCC58DF4FE8E012
:100810009E0EF12CE12CFE01849190E00E2C02C082
:10082000959587950A94E2F780FF06C0492D4E0DF5
:10083000612FC6010E94AA03FFEFEF1AFF0A88E0AA
:10084000E816F10441F721961F5F1013E2CFDF9104
:10085000CF911F910F91FF90EF90DF90CF90BF90BD
:10086000AF909F908F9008951F920F920FB60F92A6
:1008700011242F933F934F935F936F937F938F93A5
:100880009F93AF93BF93EF93FF938091B900887FBD
:10089000803609F44AC0F0F5883209F4A5C018F58D
:1008A000803109F499C0B8F4882309F4F2C0883083
:1008B00009F492C0FF91EF91BF91AF919F918F91F9
:1008C0007F916F915F914F913F912F910F900FBE4C
:1008D0000F901F901895883109F486C0803251F727
:1008E0008093DF0114C0803409F49BC040F480334E
:1008F000B9F38833F9F68093DF0185ECAEC080351B
:1009000009F483C0883509F494C0883499F60E94AC
:100910004D03D0CF883909F48AC038F5883729F0DB
:1009200050F4883611F0803729F683E08093E00197
:100930001092DE0155C0883809F479C0803919F069
:10094000803809F0B7CF8091DE01803208F06FC0A7
:10095000E091DE0181E08E0F8093DE018091BB008B
:10096000F0E0E254FE4F80833BC0803B39F0D0F48E
:10097000803A09F477C0883A09F09CCF84E08093EC
:10098000E0011092BD011092BC01F0E0E0E0099599
:100990008091BC0181110FC081E08093BC01109255
:1009A0009C0109C0803C09F4A8CF883C09F4A5CF7C
:1009B000883B09F07FCFE091BD0181E08E0F8093ED
:1009C000BD01F0E0E456FE4F80818093BB00909122
:1009D000BD018091BC0129C0809105028093BB00BC
:1009E00085EC8093BC0066CF909104028091030255
:1009F000981758F5E091040281E08E0F809304026D
:100A0000F0E0ED51FE4F8081E9CFE091040281E0FA
:100A10008E0F809304028091BB00F0E0ED51FE4FF9
:100A2000808390910402809103029817C8F285E8B0
:100A3000D8CFE091040281E08E0F80930402809170
:100A4000BB00F0E0ED51FE4F80838091E201811107
:100A50005ECF81E08093E10184EA8093BC00109234
:100A6000E00128CF8091DE01803230F4E091DE0198
:100A7000F0E0E254FE4F10820E944D036091DE01CF
:100A800070E08EEB91E0F0E0E0E009951092DE017D
:100A900034CF1092DF013BCF1F920F920FB60F920F
:100AA00011248F939F93AF93BF938091980190915E
:100AB0009901A0919A01B0919B010196A11DB11DD0
:100AC0008093980190939901A0939A01B0939B0110
:100AD000BF91AF919F918F910F900FBE0F901F907C
:100AE0001895CF93DF93CDB7DEB7CC59D4400FB66E
:100AF000F894DEBF0FBECDBF88E18093C100109295
:100B0000C20086E08093C2001092C00088E080930B
:100B1000C4001092C5008E010F5F1B4F88E7F801DB
:100B200080831092B90088E48093B8006EEAC8010F
:100B30000E94900365EDC8010E94900360E8C8011F
:100B40000E94900368EAC8010E9490036FE3C80105
:100B50000E94900363EDC8010E94900360E0C80109
:100B60000E94900360E4C8010E9490036DE8C801F0
:100B70000E94900364E1C8010E94900360E2C801F2
:100B80000E94900360E0C8010E94900361EAC801DE
:100B90000E94900368ECC8010E9490036AEDC801AE
:100BA0000E94900362E1C8010E94900361E8C801BD
:100BB0000E9490036FECC8010E94900369EDC80188
:100BC0000E94900361EFC8010E9490036BEDC80181
:100BD0000E94900360E4C8010E94900364EAC80187
:100BE0000E94900366EAC8010E9490036FEAC80160
:100BF0000E94900380E6E0E0F1E0DE01AD5FBB4FD4
:100C000001900D928A95E1F780E3E0E6F1E0DE01E4
:100C1000AD59BB4F01900D928A95E1F7CE01019637
:100C2000CB56DB4F99838883C559D440CB56DB4FD5
:100C3000E881F981C559D4401192CB56DB4FF98335
:100C4000E883C559D440E017F10781F701E010E0CF
:100C50000C0F1D1F0E591B4FCE018D5F9B4FCD56A4
:100C6000DB4F99838883C359D44020E030E040E0D3
:100C700052E4CD56DB4FE881F981C359D4406081FD
:100C80007181828193810E94060ACD56DB4FE881F3
:100C9000F981C359D440608371838283938320E0B8
:100CA00030E040E052E464817581868197810E9442
:100CB000060ACD56DB4FE881F981C359D4406483DD
:100CC0007583868397833C96CD56DB4FF983E88303
:100CD000C359D440E017F10741F681E090E08C0F52
:100CE0009D1F8A599B4FC756DB4F99838883C959EB
:100CF000D440E1E0F0E0EC0FFD1FEE56FB4FC5568F
:100D0000DB4FF983E883CB59D440C0909401D09055
:100D10009501E0909601F09097012BED3FE049ECB2
:100D200050E4C701B6010E94720A87FFD5C12DEFBA
:100D30003DEA40E05DE3C701B6010E94060A609308
:100D40009401709395018093960190939701C090C0
:100D50009001D0909101E0909201F09093012BEDE1
:100D60003FE049EC50E4C701B6010E94720A87FFD8
:100D7000BCC12BEF34E041EC5DE3C701B6010E943A
:100D8000060A609390017093910180939201909371
:100D90009301FE0131961192CB56DB4F88819981E8
:100DA000C559D440E817F907B1F7FE01ED5FFB4FD5
:100DB0001F0120E030E040E052E4F10160817181E8
:100DC000828193810E94050AF1016083718382838D
:100DD000938320E030E040E052E4648175818681B5
:100DE00097810E94050AF101648375838683978346
:100DF000FCE02F0E311CCD56DB4F88819981C35901
:100E0000D44082159305A9F68E010D5F1B4FF801A2
:100E1000C080D180E280F38080849184A284B384F6
:100E200029EB3CEF4FE75FE3C701B6010E94B70B28
:100E30002B013C0127E536ED43E25CE3C501B4013B
:100E40000E94B70B9B01AC01C301B2010E94050ACD
:100E5000F801608371838283938329EB3CEF4FE732
:100E60005FE3C501B4010E94B70B4B015C0127E5AC
:100E700036ED43E25CE3C701B6010E94B70B9B016C
:100E8000AC01C501B4010E94060AF80160877187B0
:100E900082879387045F1F4F2016310609F0B7CF72
:100EA0008E01095F1B4FF801C080D180E280F38082
:100EB00084809580A680B78023E832EE4FE75FE319
:100EC000C701B6010E94B70B2B013C012FE139EBA2
:100ED00045EF5CE3C501B4010E94B70B9B01AC0177
:100EE000C301B2010E94050AF80160837183828305
:100EF000938323E832EE4FE75FE3C501B4010E941C
:100F0000B70B4B015C012FE139EB45EF5CE3C70107
:100F1000B6010E94B70B9B01AC01C501B4010E9450
:100F2000060AF8016483758386839783045F1F4FE5
:100F3000C756DB4F88819981C959D44080179107E2
:100F400009F0B1CF8E010D5F1B4F20E030E040E093
:100F500052E4F80160817181828193810E94060AC6
:100F6000F801608371838283938320E030E040E066
:100F700052E464817581868197810E94060AF80196
:100F80006483758386839783045F1F4F2016310621
:100F9000E1F66E01FDE9CF1AFBEFDF0AF601E08012
:100FA000F18082819381FCE0F89F8001F99F100D10
:100FB000112481E090E08C0F9D1F080F191FF8018C
:100FC000EA5FFB4F60817181828193810E947E0A7A
:100FD000B62EF801EE5FFB4F6081718182819381B3
:100FE0000E947E0AA62E9CE09E9D80019F9D100D72
:100FF0001124E1E0F0E0EC0FFD1F0E0F1F1FF801C0
:10100000EA5FFB4F60817181828193810E947E0A39
:10101000F62EF801EE5FFB4F608171818281938132
:101020000E947E0AE62E8A2D8E19990BBC01072E8E
:10103000000C880B990B0E94AF0A9F770E94770AD9
:101040001B018B01EB2DEF19FF0BBF01072E000CCD
:10105000880B990B0E94AF0A9F770E94770A3B0189
:10106000EA1408F44BC0FFEFC956DB4FF883C759A9
:10107000D440FB1408F449C0EFEFC856DB4FE883B7
:10108000C859D440261A370A882499248618970804
:101090004F2D6E2DCE0101960E94AA03AE1002C004
:1010A000BF14D1F1C101880F991F8816990644F425
:1010B00026183708C956DB4F2881C759D440E20E9D
:1010C000801791072CF7200E311EC856DB4F888100
:1010D000C859D440F80EDCCF1092940110929501BB
:1010E000109296011092970132CE109290011092B8
:1010F000910110929201109293014BCE21E0C956BA
:10110000DB4F2883C759D440B4CFF1E0C856DB4F3A
:10111000F883C859D440B6CF94E0C90ED11CC55647
:10112000DB4FE881F981CB59D440EC15FD0509F07E
:1011300035CF26E030E040E450E068E5CE0101968E
:101140000E94C50326E030E046E450E06AE3CE01A9
:1011500001960E94C503C0909401D0909501E09043
:101160009601F0909701C701B6010E94EA0A0E9419
:10117000770A6A30710508F01CC1605D26E030E036
:1011800040E550E0CE0101960E94C50326E030E024
:1011900048E550E06EE2CE0101960E94C50320E0D2
:1011A00030E040E251E4C701B6010E94B70B0E9453
:1011B000EA0A0E94770ACB016AE070E00E94DD092A
:1011C00060E3680F0A9708F060E226E030E040E64E
:1011D00050E0CE0101960E94C50320E030E048ECCB
:1011E00052E4C701B6010E94B70B0E94EA0A0E94AE
:1011F000770ACB0164E670E00E94DD096AE070E0E6
:101200000E94DD0960E3680F0A9708F060E226E0BB
:1012100030E048E650E0CE0101960E94C50326E189
:1012200030E040E450E069E5CE0101960E94C5033C
:1012300026E130E046E450E06AE3CE0101960E94E8
:10124000C503C0909001D0909101E0909201F09080
:101250009301C701B6010E94EA0A0E94770A6A3028
:10126000710508F0A8C0605D26E130E040E550E07F
:10127000CE0101960E94C50326E130E048E550E02A
:101280006EE2CE0101960E94C50320E030E040E20C
:1012900051E4C701B6010E94B70B0E94EA0A0E94FE
:1012A000770ACB016AE070E00E94DD0960E3680F15
:1012B0000A9708F060E226E130E040E650E0CE0117
:1012C00001960E94C50320E030E048EC52E4C701DB
:1012D000B6010E94B70B0E94EA0A0E94770ACB016E
:1012E00064E670E00E94DD096AE070E00E94DD09BA
:1012F00060E3680F0A9708F060E226E130E048E614
:1013000050E0CE0101960E94C50361E2CE018F5FDD
:101310009B4F0E94900360E0CE018F5F9B4F0E9425
:1013200090036FE7CE018F5F9B4F0E94900362E2B4
:10133000CE018F5F9B4F0E94900360E0CE018F5FD4
:101340009B4F0E94900367E0CE018F5F9B4F0E94EE
:1013500090038E010F5F1F4F90E4D92E24E9B22E27
:10136000CE018F5F9B4F0E946A0360E4CE018F5FC6
:101370009B4F0E945703780180E1C82EF7016191CD
:101380007F01CE018F5F9B4F0E945703CA94C1100B
:10139000F5CFB092BC008091BC0084FDFCCFDA9404
:1013A000005F1F4FD110DCCFF5E3FA95F1F7000095
:1013B000ACCC60E2E3CE60E257CF97FB072E16F489
:1013C000009407D077FD09D00E94F10907FC05D0F1
:1013D0003EF4909581959F4F0895709561957F4F4C
:1013E0000895AA1BBB1B51E107C0AA1FBB1FA6176C
:1013F000B70710F0A61BB70B881F991F5A95A9F7BE
:1014000080959095BC01CD0108955058BB27AA271F
:101410000E941D0A0C94650B0E94570B38F00E9425
:101420005E0B20F039F49F3F19F426F40C94540B12
:101430000EF4E095E7FB0C94250BE92F0E94760B48
:1014400058F3BA17620773078407950720F079F4F9
:10145000A6F50C94B00B0EF4E0950B2EBA2FA02D30
:101460000B01B90190010C01CA01A0011124FF2751
:10147000591B99F0593F50F4503E68F11A16F0404C
:10148000A22F232F342F4427585FF3CF469537954B
:101490002795A795F0405395C9F77EF41F16BA0B10
:1014A000620B730B840BBAF09150A1F0FF0FBB1FBE
:1014B000661F771F881FC2F70EC0BA0F621F731F07
:1014C000841F48F4879577956795B795F7959E3F64
:1014D00008F0B0CF9395880F08F09927EE0F9795F5
:1014E000879508950E94010B08F481E008950E94F9
:1014F0007E0A6894B1110C94B10B08950E947E0B82
:1015000088F09F5798F0B92F9927B751B0F0E1F0C4
:10151000660F771F881F991F1AF0BA95C9F714C074
:10152000B13091F00E94B00BB1E008950C94B00B73
:10153000672F782F8827B85F39F0B93FCCF38695AD
:1015400077956795B395D9F73EF49095809570950A
:1015500061957F4F8F4F9F4F0895E89409C097FB87
:101560003EF490958095709561957F4F8F4F9F4F7A
:101570009923A9F0F92F96E9BB279395F6958795BE
:1015800077956795B795F111F8CFFAF4BB0F11F481
:1015900060FF1BC06F5F7F4F8F4F9F4F16C0882328
:1015A00011F096E911C0772321F09EE8872F762F5E
:1015B00005C0662371F096E8862F70E060E02AF09F
:1015C0009A95660F771F881FDAF7880F969587958B
:1015D00097F908950E94980B90F09F3748F4911165
:1015E00016F00C94B10B60E070E080E89FEB08957A
:1015F00026F41B16611D711D811D0C942B0B0C9480
:10160000460B990F0008550FAA0BE0E8FEEF1616DF
:101610001706E807F907C0F012161306E407F507E6
:1016200098F0621B730B840B950B39F40A2661F05A
:10163000232B242B252B21F408950A2609F4A140FD
:10164000A6958FEF811D811D089597F99F6780E80A
:1016500070E060E00895882371F4772321F09850BA
:10166000872B762F07C0662311F499270DC0905160
:10167000862B70E060E02AF09A95660F771F881F2E
:10168000DAF7880F9695879597F908959F3F31F07F
:10169000915020F4879577956795B795880F911DA0
:1016A0009695879597F908959FEF80EC089500240B
:1016B0000A941616170618060906089500240A94B7
:1016C00012161306140605060895092E0394000C3D
:1016D00011F4882352F0BB0F40F4BF2B11F460FFCC
:1016E00004C06F5F7F4F8F4F9F4F089557FD9058F5
:1016F000440F551F59F05F3F71F04795880F97FBD6
:10170000991F61F09F3F79F087950895121613068F
:101710001406551FF2CF4695F1DF08C016161706BE
:101720001806991FF1CF86957105610508940895F3
:101730000E947E0BA0F0BEE7B91788F4BB279F3844
:1017400060F41616B11D672F782F8827985FF7CFA2
:10175000869577956795B11D93959639C8F3089549
:10176000E894BB2766277727CB0197F908950E9455
:10177000CA0B0C94650B0E94570B38F00E945E0B4D
:1017800020F0952311F00C94250B0C94540B11248C
:101790000C94B10B0E94760B70F3959FC1F3950FDB
:1017A00050E0551F629FF001729FBB27F00DB11DE5
:1017B000639FAA27F00DB11DAA1F649F6627B00D75
:1017C000A11D661F829F2227B00DA11D621F739F5E
:1017D000B00DA11D621F839FA00D611D221F749F6C
:1017E0003327A00D611D231F849F600D211D822FB3
:1017F000762F6A2F11249F5750409AF0F1F08823DA
:101800004AF0EE0FFF1FBB1F661F771F881F915006
:101810005040A9F79E3F510580F00C94250B0C9485
:10182000B10B5F3FE4F3983ED4F3869577956795C7
:10183000B795F795E7959F5FC1F7FE2B880F911D30
:0C1840009695879597F90895F894FFCFCE
:10184C00000080C1000080C1000080C1000080C188
:10185C00000080C100008041000080C10000804178
:10186C00000080C1000080C1000080410000804168
:10187C0000008041000080C1000080C10000804158
:10188C00000080C1000080410000804100008041C8
:10189C00000080C1000080410000804100008041B8
:1018AC000000010001000300030002000200000020
:1018BC0004000500050007000700060006000400F0
:1018CC0000000400010005000200060003000700F0
:00000001FF
